{
  "_format": "hh-sol-artifact-1",
  "contractName": "EnzymeVaultManager",
  "sourceName": "contracts/EnzymeVaultManager.sol",
  "abi": [
    {
      "inputs": [
        {
          "internalType": "address",
          "name": "_IComptroller",
          "type": "address"
        },
        {
          "internalType": "address",
          "name": "_weth",
          "type": "address"
        }
      ],
      "stateMutability": "nonpayable",
      "type": "constructor"
    },
    {
      "inputs": [
        {
          "internalType": "uint256",
          "name": "amountToDeposit",
          "type": "uint256"
        }
      ],
      "name": "depositFunds",
      "outputs": [
        {
          "internalType": "bool",
          "name": "",
          "type": "bool"
        }
      ],
      "stateMutability": "nonpayable",
      "type": "function"
    },
    {
      "inputs": [],
      "name": "enzymeVault",
      "outputs": [
        {
          "internalType": "contract IComptroller",
          "name": "",
          "type": "address"
        }
      ],
      "stateMutability": "view",
      "type": "function"
    },
    {
      "inputs": [
        {
          "internalType": "uint32",
          "name": "",
          "type": "uint32"
        }
      ],
      "name": "projectDetails",
      "outputs": [
        {
          "internalType": "uint256",
          "name": "sliceOfThePiePerProject",
          "type": "uint256"
        },
        {
          "internalType": "uint256",
          "name": "sliceRedeemed",
          "type": "uint256"
        },
        {
          "internalType": "uint256",
          "name": "deadline",
          "type": "uint256"
        }
      ],
      "stateMutability": "view",
      "type": "function"
    },
    {
      "inputs": [],
      "name": "redeemAllFunds",
      "outputs": [
        {
          "internalType": "bool",
          "name": "",
          "type": "bool"
        }
      ],
      "stateMutability": "nonpayable",
      "type": "function"
    },
    {
      "inputs": [
        {
          "internalType": "uint32",
          "name": "_projectId",
          "type": "uint32"
        },
        {
          "internalType": "uint256",
          "name": "_deadline",
          "type": "uint256"
        }
      ],
      "name": "setAttributes",
      "outputs": [
        {
          "internalType": "bool",
          "name": "",
          "type": "bool"
        }
      ],
      "stateMutability": "nonpayable",
      "type": "function"
    },
    {
      "inputs": [],
      "name": "weth",
      "outputs": [
        {
          "internalType": "contract IERC20",
          "name": "",
          "type": "address"
        }
      ],
      "stateMutability": "view",
      "type": "function"
    }
  ],
  "bytecode": "0x60806040523480156200001157600080fd5b5060405162001535380380620015358339818101604052810190620000379190620000d8565b81600160006101000a81548173ffffffffffffffffffffffffffffffffffffffff021916908373ffffffffffffffffffffffffffffffffffffffff16021790555080600260006101000a81548173ffffffffffffffffffffffffffffffffffffffff021916908373ffffffffffffffffffffffffffffffffffffffff160217905550505062000167565b600081519050620000d2816200014d565b92915050565b60008060408385031215620000ec57600080fd5b6000620000fc85828601620000c1565b92505060206200010f85828601620000c1565b9150509250929050565b600062000126826200012d565b9050919050565b600073ffffffffffffffffffffffffffffffffffffffff82169050919050565b620001588162000119565b81146200016457600080fd5b50565b6113be80620001776000396000f3fe608060405234801561001057600080fd5b50600436106100625760003560e01c80633b76594d146100675780633fc8cef3146100975780636681f789146100b5578063e6496b06146100e5578063f2d7286714610103578063ff278a2f14610135575b600080fd5b610081600480360381019061007c9190610af1565b610153565b60405161008e9190610e93565b60405180910390f35b61009f610436565b6040516100ac9190610ec9565b60405180910390f35b6100cf60048036038101906100ca9190610b6c565b61045c565b6040516100dc9190610e93565b60405180910390f35b6100ed61048e565b6040516100fa9190610eae565b60405180910390f35b61011d60048036038101906101189190610b43565b6104b4565b60405161012c93929190610f66565b60405180910390f35b61013d6104de565b60405161014a9190610e93565b60405180910390f35b600081600260009054906101000a900473ffffffffffffffffffffffffffffffffffffffff1673ffffffffffffffffffffffffffffffffffffffff1663dd62ed3e33306040518363ffffffff1660e01b81526004016101b3929190610de7565b60206040518083038186803b1580156101cb57600080fd5b505afa1580156101df573d6000803e3d6000fd5b505050506040513d601f19601f820116820180604052508101906102039190610b1a565b101561020e57600080fd5b61025d333084600260009054906101000a900473ffffffffffffffffffffffffffffffffffffffff1673ffffffffffffffffffffffffffffffffffffffff16610590909392919063ffffffff16565b6060806060308360008151811061029d577f4e487b7100000000000000000000000000000000000000000000000000000000600052603260045260246000fd5b602002602001019073ffffffffffffffffffffffffffffffffffffffff16908173ffffffffffffffffffffffffffffffffffffffff16815250508482600081518110610312577f4e487b7100000000000000000000000000000000000000000000000000000000600052603260045260246000fd5b602002602001018181525050629896808561032d91906110be565b81600081518110610367577f4e487b7100000000000000000000000000000000000000000000000000000000600052603260045260246000fd5b602002602001018181525050600160009054906101000a900473ffffffffffffffffffffffffffffffffffffffff1673ffffffffffffffffffffffffffffffffffffffff1663f9f585dd8484846040518463ffffffff1660e01b81526004016103d293929190610e47565b600060405180830381600087803b1580156103ec57600080fd5b505af1158015610400573d6000803e3d6000fd5b505050506040513d6000823e3d601f19601f820116820180604052508101906104299190610a87565b5060019350505050919050565b600260009054906101000a900473ffffffffffffffffffffffffffffffffffffffff1681565b6000816000808563ffffffff1663ffffffff168152602001908152602001600020600201819055506001905092915050565b600160009054906101000a900473ffffffffffffffffffffffffffffffffffffffff1681565b60006020528060005260406000206000915090508060000154908060010154908060020154905083565b6000600160009054906101000a900473ffffffffffffffffffffffffffffffffffffffff1673ffffffffffffffffffffffffffffffffffffffff1663b460481d6040518163ffffffff1660e01b8152600401600060405180830381600087803b15801561054a57600080fd5b505af115801561055e573d6000803e3d6000fd5b505050506040513d6000823e3d601f19601f820116820180604052508101906105879190610a1b565b50506001905090565b610613846323b872dd60e01b8585856040516024016105b193929190610e10565b604051602081830303815290604052907bffffffffffffffffffffffffffffffffffffffffffffffffffffffff19166020820180517bffffffffffffffffffffffffffffffffffffffffffffffffffffffff8381831617835250505050610619565b50505050565b600061067b826040518060400160405280602081526020017f5361666545524332303a206c6f772d6c6576656c2063616c6c206661696c65648152508573ffffffffffffffffffffffffffffffffffffffff166106e09092919063ffffffff16565b90506000815111156106db578080602001905181019061069b9190610ac8565b6106da576040517f08c379a00000000000000000000000000000000000000000000000000000000081526004016106d190610f46565b60405180910390fd5b5b505050565b60606106ef84846000856106f8565b90509392505050565b60608247101561073d576040517f08c379a000000000000000000000000000000000000000000000000000000000815260040161073490610f06565b60405180910390fd5b6107468561080c565b610785576040517f08c379a000000000000000000000000000000000000000000000000000000000815260040161077c90610f26565b60405180910390fd5b6000808673ffffffffffffffffffffffffffffffffffffffff1685876040516107ae9190610dd0565b60006040518083038185875af1925050503d80600081146107eb576040519150601f19603f3d011682016040523d82523d6000602084013e6107f0565b606091505b509150915061080082828661081f565b92505050949350505050565b600080823b905060008111915050919050565b6060831561082f5782905061087f565b6000835111156108425782518084602001fd5b816040517f08c379a00000000000000000000000000000000000000000000000000000000081526004016108769190610ee4565b60405180910390fd5b9392505050565b600061089961089484610fc2565b610f9d565b905080838252602082019050828560208602820111156108b857600080fd5b60005b858110156108e857816108ce888261095e565b8452602084019350602083019250506001810190506108bb565b5050509392505050565b600061090561090084610fee565b610f9d565b9050808382526020820190508285602086028201111561092457600080fd5b60005b85811015610954578161093a88826109f1565b845260208401935060208301925050600181019050610927565b5050509392505050565b60008151905061096d8161132c565b92915050565b600082601f83011261098457600080fd5b8151610994848260208601610886565b91505092915050565b600082601f8301126109ae57600080fd5b81516109be8482602086016108f2565b91505092915050565b6000815190506109d681611343565b92915050565b6000813590506109eb8161135a565b92915050565b600081519050610a008161135a565b92915050565b600081359050610a1581611371565b92915050565b60008060408385031215610a2e57600080fd5b600083015167ffffffffffffffff811115610a4857600080fd5b610a5485828601610973565b925050602083015167ffffffffffffffff811115610a7157600080fd5b610a7d8582860161099d565b9150509250929050565b600060208284031215610a9957600080fd5b600082015167ffffffffffffffff811115610ab357600080fd5b610abf8482850161099d565b91505092915050565b600060208284031215610ada57600080fd5b6000610ae8848285016109c7565b91505092915050565b600060208284031215610b0357600080fd5b6000610b11848285016109dc565b91505092915050565b600060208284031215610b2c57600080fd5b6000610b3a848285016109f1565b91505092915050565b600060208284031215610b5557600080fd5b6000610b6384828501610a06565b91505092915050565b60008060408385031215610b7f57600080fd5b6000610b8d85828601610a06565b9250506020610b9e858286016109dc565b9150509250929050565b6000610bb48383610bd8565b60208301905092915050565b6000610bcc8383610db2565b60208301905092915050565b610be1816110f2565b82525050565b610bf0816110f2565b82525050565b6000610c018261103a565b610c0b8185611080565b9350610c168361101a565b8060005b83811015610c47578151610c2e8882610ba8565b9750610c3983611066565b925050600181019050610c1a565b5085935050505092915050565b6000610c5f82611045565b610c698185611091565b9350610c748361102a565b8060005b83811015610ca5578151610c8c8882610bc0565b9750610c9783611073565b925050600181019050610c78565b5085935050505092915050565b610cbb81611104565b82525050565b6000610ccc82611050565b610cd681856110a2565b9350610ce6818560208601611192565b80840191505092915050565b610cfb8161114a565b82525050565b610d0a8161116e565b82525050565b6000610d1b8261105b565b610d2581856110ad565b9350610d35818560208601611192565b610d3e81611254565b840191505092915050565b6000610d566026836110ad565b9150610d6182611265565b604082019050919050565b6000610d79601d836110ad565b9150610d84826112b4565b602082019050919050565b6000610d9c602a836110ad565b9150610da7826112dd565b604082019050919050565b610dbb81611130565b82525050565b610dca81611130565b82525050565b6000610ddc8284610cc1565b915081905092915050565b6000604082019050610dfc6000830185610be7565b610e096020830184610be7565b9392505050565b6000606082019050610e256000830186610be7565b610e326020830185610be7565b610e3f6040830184610dc1565b949350505050565b60006060820190508181036000830152610e618186610bf6565b90508181036020830152610e758185610c54565b90508181036040830152610e898184610c54565b9050949350505050565b6000602082019050610ea86000830184610cb2565b92915050565b6000602082019050610ec36000830184610cf2565b92915050565b6000602082019050610ede6000830184610d01565b92915050565b60006020820190508181036000830152610efe8184610d10565b905092915050565b60006020820190508181036000830152610f1f81610d49565b9050919050565b60006020820190508181036000830152610f3f81610d6c565b9050919050565b60006020820190508181036000830152610f5f81610d8f565b9050919050565b6000606082019050610f7b6000830186610dc1565b610f886020830185610dc1565b610f956040830184610dc1565b949350505050565b6000610fa7610fb8565b9050610fb382826111c5565b919050565b6000604051905090565b600067ffffffffffffffff821115610fdd57610fdc611225565b5b602082029050602081019050919050565b600067ffffffffffffffff82111561100957611008611225565b5b602082029050602081019050919050565b6000819050602082019050919050565b6000819050602082019050919050565b600081519050919050565b600081519050919050565b600081519050919050565b600081519050919050565b6000602082019050919050565b6000602082019050919050565b600082825260208201905092915050565b600082825260208201905092915050565b600081905092915050565b600082825260208201905092915050565b60006110c982611130565b91506110d483611130565b9250828210156110e7576110e66111f6565b5b828203905092915050565b60006110fd82611110565b9050919050565b60008115159050919050565b600073ffffffffffffffffffffffffffffffffffffffff82169050919050565b6000819050919050565b600063ffffffff82169050919050565b60006111558261115c565b9050919050565b600061116782611110565b9050919050565b600061117982611180565b9050919050565b600061118b82611110565b9050919050565b60005b838110156111b0578082015181840152602081019050611195565b838111156111bf576000848401525b50505050565b6111ce82611254565b810181811067ffffffffffffffff821117156111ed576111ec611225565b5b80604052505050565b7f4e487b7100000000000000000000000000000000000000000000000000000000600052601160045260246000fd5b7f4e487b7100000000000000000000000000000000000000000000000000000000600052604160045260246000fd5b6000601f19601f8301169050919050565b7f416464726573733a20696e73756666696369656e742062616c616e636520666f60008201527f722063616c6c0000000000000000000000000000000000000000000000000000602082015250565b7f416464726573733a2063616c6c20746f206e6f6e2d636f6e7472616374000000600082015250565b7f5361666545524332303a204552433230206f7065726174696f6e20646964206e60008201527f6f74207375636365656400000000000000000000000000000000000000000000602082015250565b611335816110f2565b811461134057600080fd5b50565b61134c81611104565b811461135757600080fd5b50565b61136381611130565b811461136e57600080fd5b50565b61137a8161113a565b811461138557600080fd5b5056fea26469706673582212201854559f88c90c9c7b77e20559f0f5160ff1f80b276e1641a7a1ce52a7d87a2d64736f6c63430008030033",
  "linkReferences": {},
  "deployedLinkReferences": {}
}