{
  "contracts/EnzymeVaultManager.sol": {
    "EnzymeVaultManager": {
      "abi": [
        {
          "inputs": [
            {
              "internalType": "address",
              "name": "_IComptroller",
              "type": "address"
            },
            {
              "internalType": "address",
              "name": "_weth",
              "type": "address"
            }
          ],
          "stateMutability": "nonpayable",
          "type": "constructor"
        },
        {
          "inputs": [
            {
              "internalType": "uint256",
              "name": "amountToDeposit",
              "type": "uint256"
            }
          ],
          "name": "depositFunds",
          "outputs": [
            {
              "internalType": "bool",
              "name": "",
              "type": "bool"
            }
          ],
          "stateMutability": "nonpayable",
          "type": "function"
        },
        {
          "inputs": [],
          "name": "enzymeVault",
          "outputs": [
            {
              "internalType": "contract IComptroller",
              "name": "",
              "type": "address"
            }
          ],
          "stateMutability": "view",
          "type": "function"
        },
        {
          "inputs": [
            {
              "internalType": "uint256",
              "name": "amountToDeposit",
              "type": "uint256"
            }
          ],
          "name": "investFunds",
          "outputs": [
            {
              "internalType": "bool",
              "name": "",
              "type": "bool"
            }
          ],
          "stateMutability": "nonpayable",
          "type": "function"
        },
        {
          "inputs": [
            {
              "internalType": "uint32",
              "name": "",
              "type": "uint32"
            }
          ],
          "name": "projectDetails",
          "outputs": [
            {
              "internalType": "uint256",
              "name": "sliceOfThePiePerProject",
              "type": "uint256"
            },
            {
              "internalType": "uint256",
              "name": "sliceRedeemed",
              "type": "uint256"
            },
            {
              "internalType": "uint256",
              "name": "deadline",
              "type": "uint256"
            }
          ],
          "stateMutability": "view",
          "type": "function"
        },
        {
          "inputs": [],
          "name": "redeemAllFunds",
          "outputs": [
            {
              "internalType": "bool",
              "name": "",
              "type": "bool"
            }
          ],
          "stateMutability": "nonpayable",
          "type": "function"
        },
        {
          "inputs": [
            {
              "internalType": "address",
              "name": "approvedToVault",
              "type": "address"
            },
            {
              "internalType": "uint256",
              "name": "amount",
              "type": "uint256"
            }
          ],
          "name": "setApproval",
          "outputs": [],
          "stateMutability": "nonpayable",
          "type": "function"
        },
        {
          "inputs": [
            {
              "internalType": "uint32",
              "name": "_projectId",
              "type": "uint32"
            },
            {
              "internalType": "uint256",
              "name": "_deadline",
              "type": "uint256"
            }
          ],
          "name": "setAttributes",
          "outputs": [
            {
              "internalType": "bool",
              "name": "",
              "type": "bool"
            }
          ],
          "stateMutability": "nonpayable",
          "type": "function"
        },
        {
          "inputs": [],
          "name": "weth",
          "outputs": [
            {
              "internalType": "contract IERC20",
              "name": "",
              "type": "address"
            }
          ],
          "stateMutability": "view",
          "type": "function"
        }
      ],
      "evm": {
        "bytecode": {
          "linkReferences": {},
          "object": "60806040523480156200001157600080fd5b5060405162001410380380620014108339818101604052810190620000379190620000d8565b81600160006101000a81548173ffffffffffffffffffffffffffffffffffffffff021916908373ffffffffffffffffffffffffffffffffffffffff16021790555080600260006101000a81548173ffffffffffffffffffffffffffffffffffffffff021916908373ffffffffffffffffffffffffffffffffffffffff160217905550505062000172565b600081519050620000d28162000158565b92915050565b60008060408385031215620000f257620000f162000153565b5b60006200010285828601620000c1565b92505060206200011585828601620000c1565b9150509250929050565b60006200012c8262000133565b9050919050565b600073ffffffffffffffffffffffffffffffffffffffff82169050919050565b600080fd5b62000163816200011f565b81146200016f57600080fd5b50565b61128e80620001826000396000f3fe608060405234801561001057600080fd5b50600436106100885760003560e01c8063dd4cbcef1161005b578063dd4cbcef14610127578063e6496b0614610157578063f2d7286714610175578063ff278a2f146101a757610088565b80631417cef81461008d5780633b76594d146100a95780633fc8cef3146100d95780636681f789146100f7575b600080fd5b6100a760048036038101906100a291906109ea565b6101c5565b005b6100c360048036038101906100be9190610acf565b610279565b6040516100d09190610e2b565b60405180910390f35b6100e1610425565b6040516100ee9190610e61565b60405180910390f35b610111600480360381019061010c9190610b56565b61044b565b60405161011e9190610e2b565b60405180910390f35b610141600480360381019061013c9190610acf565b61047d565b60405161014e9190610e2b565b60405180910390f35b61015f61072e565b60405161016c9190610e46565b60405180910390f35b61018f600480360381019061018a9190610b29565b610754565b60405161019e93929190610e9c565b60405180910390f35b6101af61077e565b6040516101bc9190610e2b565b60405180910390f35b600260009054906101000a900473ffffffffffffffffffffffffffffffffffffffff1673ffffffffffffffffffffffffffffffffffffffff1663095ea7b383836040518363ffffffff1660e01b8152600401610222929190610db6565b602060405180830381600087803b15801561023c57600080fd5b505af1158015610250573d6000803e3d6000fd5b505050506040513d601f19601f820116820180604052508101906102749190610aa2565b505050565b600081600260009054906101000a900473ffffffffffffffffffffffffffffffffffffffff1673ffffffffffffffffffffffffffffffffffffffff1663dd62ed3e33306040518363ffffffff1660e01b81526004016102d9929190610d56565b60206040518083038186803b1580156102f157600080fd5b505afa158015610305573d6000803e3d6000fd5b505050506040513d601f19601f820116820180604052508101906103299190610afc565b101561036a576040517f08c379a000000000000000000000000000000000000000000000000000000000815260040161036190610e7c565b60405180910390fd5b600260009054906101000a900473ffffffffffffffffffffffffffffffffffffffff1673ffffffffffffffffffffffffffffffffffffffff166323b872dd3330856040518463ffffffff1660e01b81526004016103c993929190610d7f565b602060405180830381600087803b1580156103e357600080fd5b505af11580156103f7573d6000803e3d6000fd5b505050506040513d601f19601f8201168201806040525081019061041b9190610aa2565b5060019050919050565b600260009054906101000a900473ffffffffffffffffffffffffffffffffffffffff1681565b6000816000808563ffffffff1663ffffffff168152602001908152602001600020600201819055506001905092915050565b600080600167ffffffffffffffff81111561049b5761049a61117f565b5b6040519080825280602002602001820160405280156104c95781602001602082028036833780820191505090505b5090506000600167ffffffffffffffff8111156104e9576104e861117f565b5b6040519080825280602002602001820160405280156105175781602001602082028036833780820191505090505b5090506000600167ffffffffffffffff8111156105375761053661117f565b5b6040519080825280602002602001820160405280156105655781602001602082028036833780820191505090505b509050308360008151811061057d5761057c611150565b5b602002602001019073ffffffffffffffffffffffffffffffffffffffff16908173ffffffffffffffffffffffffffffffffffffffff168152505084826000815181106105cc576105cb611150565b5b60200260200101818152505062989680856105e79190610fe9565b816000815181106105fb576105fa611150565b5b602002602001018181525050600160009054906101000a900473ffffffffffffffffffffffffffffffffffffffff1673ffffffffffffffffffffffffffffffffffffffff1683838360405160240161065593929190610ddf565b6040516020818303038152906040527ff9f585dd000000000000000000000000000000000000000000000000000000007bffffffffffffffffffffffffffffffffffffffffffffffffffffffff19166020820180517bffffffffffffffffffffffffffffffffffffffffffffffffffffffff83818316178352505050506040516106df9190610d3f565b600060405180830381855af49150503d806000811461071a576040519150601f19603f3d011682016040523d82523d6000602084013e61071f565b606091505b50505060019350505050919050565b600160009054906101000a900473ffffffffffffffffffffffffffffffffffffffff1681565b60006020528060005260406000206000915090508060000154908060010154908060020154905083565b6000600160009054906101000a900473ffffffffffffffffffffffffffffffffffffffff1673ffffffffffffffffffffffffffffffffffffffff1663b460481d6040518163ffffffff1660e01b8152600401600060405180830381600087803b1580156107ea57600080fd5b505af11580156107fe573d6000803e3d6000fd5b505050506040513d6000823e3d601f19601f820116820180604052508101906108279190610a2a565b50506001905090565b600061084361083e84610ef8565b610ed3565b90508083825260208201905082856020860282011115610866576108656111b3565b5b60005b85811015610896578161087c8882610925565b845260208401935060208301925050600181019050610869565b5050509392505050565b60006108b36108ae84610f24565b610ed3565b905080838252602082019050828560208602820111156108d6576108d56111b3565b5b60005b8581101561090657816108ec88826109c0565b8452602084019350602083019250506001810190506108d9565b5050509392505050565b60008135905061091f816111fc565b92915050565b600081519050610934816111fc565b92915050565b600082601f83011261094f5761094e6111ae565b5b815161095f848260208601610830565b91505092915050565b600082601f83011261097d5761097c6111ae565b5b815161098d8482602086016108a0565b91505092915050565b6000815190506109a581611213565b92915050565b6000813590506109ba8161122a565b92915050565b6000815190506109cf8161122a565b92915050565b6000813590506109e481611241565b92915050565b60008060408385031215610a0157610a006111bd565b5b6000610a0f85828601610910565b9250506020610a20858286016109ab565b9150509250929050565b60008060408385031215610a4157610a406111bd565b5b600083015167ffffffffffffffff811115610a5f57610a5e6111b8565b5b610a6b8582860161093a565b925050602083015167ffffffffffffffff811115610a8c57610a8b6111b8565b5b610a9885828601610968565b9150509250929050565b600060208284031215610ab857610ab76111bd565b5b6000610ac684828501610996565b91505092915050565b600060208284031215610ae557610ae46111bd565b5b6000610af3848285016109ab565b91505092915050565b600060208284031215610b1257610b116111bd565b5b6000610b20848285016109c0565b91505092915050565b600060208284031215610b3f57610b3e6111bd565b5b6000610b4d848285016109d5565b91505092915050565b60008060408385031215610b6d57610b6c6111bd565b5b6000610b7b858286016109d5565b9250506020610b8c858286016109ab565b9150509250929050565b6000610ba28383610bc6565b60208301905092915050565b6000610bba8383610d21565b60208301905092915050565b610bcf8161101d565b82525050565b610bde8161101d565b82525050565b6000610bef82610f70565b610bf98185610fab565b9350610c0483610f50565b8060005b83811015610c35578151610c1c8882610b96565b9750610c2783610f91565b925050600181019050610c08565b5085935050505092915050565b6000610c4d82610f7b565b610c578185610fbc565b9350610c6283610f60565b8060005b83811015610c93578151610c7a8882610bae565b9750610c8583610f9e565b925050600181019050610c66565b5085935050505092915050565b610ca98161102f565b82525050565b6000610cba82610f86565b610cc48185610fcd565b9350610cd48185602086016110bd565b80840191505092915050565b610ce981611075565b82525050565b610cf881611099565b82525050565b6000610d0b601483610fd8565b9150610d16826111d3565b602082019050919050565b610d2a8161105b565b82525050565b610d398161105b565b82525050565b6000610d4b8284610caf565b915081905092915050565b6000604082019050610d6b6000830185610bd5565b610d786020830184610bd5565b9392505050565b6000606082019050610d946000830186610bd5565b610da16020830185610bd5565b610dae6040830184610d30565b949350505050565b6000604082019050610dcb6000830185610bd5565b610dd86020830184610d30565b9392505050565b60006060820190508181036000830152610df98186610be4565b90508181036020830152610e0d8185610c42565b90508181036040830152610e218184610c42565b9050949350505050565b6000602082019050610e406000830184610ca0565b92915050565b6000602082019050610e5b6000830184610ce0565b92915050565b6000602082019050610e766000830184610cef565b92915050565b60006020820190508181036000830152610e9581610cfe565b9050919050565b6000606082019050610eb16000830186610d30565b610ebe6020830185610d30565b610ecb6040830184610d30565b949350505050565b6000610edd610eee565b9050610ee982826110f0565b919050565b6000604051905090565b600067ffffffffffffffff821115610f1357610f1261117f565b5b602082029050602081019050919050565b600067ffffffffffffffff821115610f3f57610f3e61117f565b5b602082029050602081019050919050565b6000819050602082019050919050565b6000819050602082019050919050565b600081519050919050565b600081519050919050565b600081519050919050565b6000602082019050919050565b6000602082019050919050565b600082825260208201905092915050565b600082825260208201905092915050565b600081905092915050565b600082825260208201905092915050565b6000610ff48261105b565b9150610fff8361105b565b92508282101561101257611011611121565b5b828203905092915050565b60006110288261103b565b9050919050565b60008115159050919050565b600073ffffffffffffffffffffffffffffffffffffffff82169050919050565b6000819050919050565b600063ffffffff82169050919050565b600061108082611087565b9050919050565b60006110928261103b565b9050919050565b60006110a4826110ab565b9050919050565b60006110b68261103b565b9050919050565b60005b838110156110db5780820151818401526020810190506110c0565b838111156110ea576000848401525b50505050565b6110f9826111c2565b810181811067ffffffffffffffff821117156111185761111761117f565b5b80604052505050565b7f4e487b7100000000000000000000000000000000000000000000000000000000600052601160045260246000fd5b7f4e487b7100000000000000000000000000000000000000000000000000000000600052603260045260246000fd5b7f4e487b7100000000000000000000000000000000000000000000000000000000600052604160045260246000fd5b600080fd5b600080fd5b600080fd5b600080fd5b6000601f19601f8301169050919050565b7f4e6f7420656e6f75676820616c6c6f77616e6365000000000000000000000000600082015250565b6112058161101d565b811461121057600080fd5b50565b61121c8161102f565b811461122757600080fd5b50565b6112338161105b565b811461123e57600080fd5b50565b61124a81611065565b811461125557600080fd5b5056fea2646970667358221220cb3232c8aa0b22a06a2c47175b1cb6a7cfe58e99f2a7cd410d3ce60343be3f5764736f6c63430008060033",
          "opcodes": "PUSH1 0x80 PUSH1 0x40 MSTORE CALLVALUE DUP1 ISZERO PUSH3 0x11 JUMPI PUSH1 0x0 DUP1 REVERT JUMPDEST POP PUSH1 0x40 MLOAD PUSH3 0x1410 CODESIZE SUB DUP1 PUSH3 0x1410 DUP4 CODECOPY DUP2 DUP2 ADD PUSH1 0x40 MSTORE DUP2 ADD SWAP1 PUSH3 0x37 SWAP2 SWAP1 PUSH3 0xD8 JUMP JUMPDEST DUP2 PUSH1 0x1 PUSH1 0x0 PUSH2 0x100 EXP DUP2 SLOAD DUP2 PUSH20 0xFFFFFFFFFFFFFFFFFFFFFFFFFFFFFFFFFFFFFFFF MUL NOT AND SWAP1 DUP4 PUSH20 0xFFFFFFFFFFFFFFFFFFFFFFFFFFFFFFFFFFFFFFFF AND MUL OR SWAP1 SSTORE POP DUP1 PUSH1 0x2 PUSH1 0x0 PUSH2 0x100 EXP DUP2 SLOAD DUP2 PUSH20 0xFFFFFFFFFFFFFFFFFFFFFFFFFFFFFFFFFFFFFFFF MUL NOT AND SWAP1 DUP4 PUSH20 0xFFFFFFFFFFFFFFFFFFFFFFFFFFFFFFFFFFFFFFFF AND MUL OR SWAP1 SSTORE POP POP POP PUSH3 0x172 JUMP JUMPDEST PUSH1 0x0 DUP2 MLOAD SWAP1 POP PUSH3 0xD2 DUP2 PUSH3 0x158 JUMP JUMPDEST SWAP3 SWAP2 POP POP JUMP JUMPDEST PUSH1 0x0 DUP1 PUSH1 0x40 DUP4 DUP6 SUB SLT ISZERO PUSH3 0xF2 JUMPI PUSH3 0xF1 PUSH3 0x153 JUMP JUMPDEST JUMPDEST PUSH1 0x0 PUSH3 0x102 DUP6 DUP3 DUP7 ADD PUSH3 0xC1 JUMP JUMPDEST SWAP3 POP POP PUSH1 0x20 PUSH3 0x115 DUP6 DUP3 DUP7 ADD PUSH3 0xC1 JUMP JUMPDEST SWAP2 POP POP SWAP3 POP SWAP3 SWAP1 POP JUMP JUMPDEST PUSH1 0x0 PUSH3 0x12C DUP3 PUSH3 0x133 JUMP JUMPDEST SWAP1 POP SWAP2 SWAP1 POP JUMP JUMPDEST PUSH1 0x0 PUSH20 0xFFFFFFFFFFFFFFFFFFFFFFFFFFFFFFFFFFFFFFFF DUP3 AND SWAP1 POP SWAP2 SWAP1 POP JUMP JUMPDEST PUSH1 0x0 DUP1 REVERT JUMPDEST PUSH3 0x163 DUP2 PUSH3 0x11F JUMP JUMPDEST DUP2 EQ PUSH3 0x16F JUMPI PUSH1 0x0 DUP1 REVERT JUMPDEST POP JUMP JUMPDEST PUSH2 0x128E DUP1 PUSH3 0x182 PUSH1 0x0 CODECOPY PUSH1 0x0 RETURN INVALID PUSH1 0x80 PUSH1 0x40 MSTORE CALLVALUE DUP1 ISZERO PUSH2 0x10 JUMPI PUSH1 0x0 DUP1 REVERT JUMPDEST POP PUSH1 0x4 CALLDATASIZE LT PUSH2 0x88 JUMPI PUSH1 0x0 CALLDATALOAD PUSH1 0xE0 SHR DUP1 PUSH4 0xDD4CBCEF GT PUSH2 0x5B JUMPI DUP1 PUSH4 0xDD4CBCEF EQ PUSH2 0x127 JUMPI DUP1 PUSH4 0xE6496B06 EQ PUSH2 0x157 JUMPI DUP1 PUSH4 0xF2D72867 EQ PUSH2 0x175 JUMPI DUP1 PUSH4 0xFF278A2F EQ PUSH2 0x1A7 JUMPI PUSH2 0x88 JUMP JUMPDEST DUP1 PUSH4 0x1417CEF8 EQ PUSH2 0x8D JUMPI DUP1 PUSH4 0x3B76594D EQ PUSH2 0xA9 JUMPI DUP1 PUSH4 0x3FC8CEF3 EQ PUSH2 0xD9 JUMPI DUP1 PUSH4 0x6681F789 EQ PUSH2 0xF7 JUMPI JUMPDEST PUSH1 0x0 DUP1 REVERT JUMPDEST PUSH2 0xA7 PUSH1 0x4 DUP1 CALLDATASIZE SUB DUP2 ADD SWAP1 PUSH2 0xA2 SWAP2 SWAP1 PUSH2 0x9EA JUMP JUMPDEST PUSH2 0x1C5 JUMP JUMPDEST STOP JUMPDEST PUSH2 0xC3 PUSH1 0x4 DUP1 CALLDATASIZE SUB DUP2 ADD SWAP1 PUSH2 0xBE SWAP2 SWAP1 PUSH2 0xACF JUMP JUMPDEST PUSH2 0x279 JUMP JUMPDEST PUSH1 0x40 MLOAD PUSH2 0xD0 SWAP2 SWAP1 PUSH2 0xE2B JUMP JUMPDEST PUSH1 0x40 MLOAD DUP1 SWAP2 SUB SWAP1 RETURN JUMPDEST PUSH2 0xE1 PUSH2 0x425 JUMP JUMPDEST PUSH1 0x40 MLOAD PUSH2 0xEE SWAP2 SWAP1 PUSH2 0xE61 JUMP JUMPDEST PUSH1 0x40 MLOAD DUP1 SWAP2 SUB SWAP1 RETURN JUMPDEST PUSH2 0x111 PUSH1 0x4 DUP1 CALLDATASIZE SUB DUP2 ADD SWAP1 PUSH2 0x10C SWAP2 SWAP1 PUSH2 0xB56 JUMP JUMPDEST PUSH2 0x44B JUMP JUMPDEST PUSH1 0x40 MLOAD PUSH2 0x11E SWAP2 SWAP1 PUSH2 0xE2B JUMP JUMPDEST PUSH1 0x40 MLOAD DUP1 SWAP2 SUB SWAP1 RETURN JUMPDEST PUSH2 0x141 PUSH1 0x4 DUP1 CALLDATASIZE SUB DUP2 ADD SWAP1 PUSH2 0x13C SWAP2 SWAP1 PUSH2 0xACF JUMP JUMPDEST PUSH2 0x47D JUMP JUMPDEST PUSH1 0x40 MLOAD PUSH2 0x14E SWAP2 SWAP1 PUSH2 0xE2B JUMP JUMPDEST PUSH1 0x40 MLOAD DUP1 SWAP2 SUB SWAP1 RETURN JUMPDEST PUSH2 0x15F PUSH2 0x72E JUMP JUMPDEST PUSH1 0x40 MLOAD PUSH2 0x16C SWAP2 SWAP1 PUSH2 0xE46 JUMP JUMPDEST PUSH1 0x40 MLOAD DUP1 SWAP2 SUB SWAP1 RETURN JUMPDEST PUSH2 0x18F PUSH1 0x4 DUP1 CALLDATASIZE SUB DUP2 ADD SWAP1 PUSH2 0x18A SWAP2 SWAP1 PUSH2 0xB29 JUMP JUMPDEST PUSH2 0x754 JUMP JUMPDEST PUSH1 0x40 MLOAD PUSH2 0x19E SWAP4 SWAP3 SWAP2 SWAP1 PUSH2 0xE9C JUMP JUMPDEST PUSH1 0x40 MLOAD DUP1 SWAP2 SUB SWAP1 RETURN JUMPDEST PUSH2 0x1AF PUSH2 0x77E JUMP JUMPDEST PUSH1 0x40 MLOAD PUSH2 0x1BC SWAP2 SWAP1 PUSH2 0xE2B JUMP JUMPDEST PUSH1 0x40 MLOAD DUP1 SWAP2 SUB SWAP1 RETURN JUMPDEST PUSH1 0x2 PUSH1 0x0 SWAP1 SLOAD SWAP1 PUSH2 0x100 EXP SWAP1 DIV PUSH20 0xFFFFFFFFFFFFFFFFFFFFFFFFFFFFFFFFFFFFFFFF AND PUSH20 0xFFFFFFFFFFFFFFFFFFFFFFFFFFFFFFFFFFFFFFFF AND PUSH4 0x95EA7B3 DUP4 DUP4 PUSH1 0x40 MLOAD DUP4 PUSH4 0xFFFFFFFF AND PUSH1 0xE0 SHL DUP2 MSTORE PUSH1 0x4 ADD PUSH2 0x222 SWAP3 SWAP2 SWAP1 PUSH2 0xDB6 JUMP JUMPDEST PUSH1 0x20 PUSH1 0x40 MLOAD DUP1 DUP4 SUB DUP2 PUSH1 0x0 DUP8 DUP1 EXTCODESIZE ISZERO DUP1 ISZERO PUSH2 0x23C JUMPI PUSH1 0x0 DUP1 REVERT JUMPDEST POP GAS CALL ISZERO DUP1 ISZERO PUSH2 0x250 JUMPI RETURNDATASIZE PUSH1 0x0 DUP1 RETURNDATACOPY RETURNDATASIZE PUSH1 0x0 REVERT JUMPDEST POP POP POP POP PUSH1 0x40 MLOAD RETURNDATASIZE PUSH1 0x1F NOT PUSH1 0x1F DUP3 ADD AND DUP3 ADD DUP1 PUSH1 0x40 MSTORE POP DUP2 ADD SWAP1 PUSH2 0x274 SWAP2 SWAP1 PUSH2 0xAA2 JUMP JUMPDEST POP POP POP JUMP JUMPDEST PUSH1 0x0 DUP2 PUSH1 0x2 PUSH1 0x0 SWAP1 SLOAD SWAP1 PUSH2 0x100 EXP SWAP1 DIV PUSH20 0xFFFFFFFFFFFFFFFFFFFFFFFFFFFFFFFFFFFFFFFF AND PUSH20 0xFFFFFFFFFFFFFFFFFFFFFFFFFFFFFFFFFFFFFFFF AND PUSH4 0xDD62ED3E CALLER ADDRESS PUSH1 0x40 MLOAD DUP4 PUSH4 0xFFFFFFFF AND PUSH1 0xE0 SHL DUP2 MSTORE PUSH1 0x4 ADD PUSH2 0x2D9 SWAP3 SWAP2 SWAP1 PUSH2 0xD56 JUMP JUMPDEST PUSH1 0x20 PUSH1 0x40 MLOAD DUP1 DUP4 SUB DUP2 DUP7 DUP1 EXTCODESIZE ISZERO DUP1 ISZERO PUSH2 0x2F1 JUMPI PUSH1 0x0 DUP1 REVERT JUMPDEST POP GAS STATICCALL ISZERO DUP1 ISZERO PUSH2 0x305 JUMPI RETURNDATASIZE PUSH1 0x0 DUP1 RETURNDATACOPY RETURNDATASIZE PUSH1 0x0 REVERT JUMPDEST POP POP POP POP PUSH1 0x40 MLOAD RETURNDATASIZE PUSH1 0x1F NOT PUSH1 0x1F DUP3 ADD AND DUP3 ADD DUP1 PUSH1 0x40 MSTORE POP DUP2 ADD SWAP1 PUSH2 0x329 SWAP2 SWAP1 PUSH2 0xAFC JUMP JUMPDEST LT ISZERO PUSH2 0x36A JUMPI PUSH1 0x40 MLOAD PUSH32 0x8C379A000000000000000000000000000000000000000000000000000000000 DUP2 MSTORE PUSH1 0x4 ADD PUSH2 0x361 SWAP1 PUSH2 0xE7C JUMP JUMPDEST PUSH1 0x40 MLOAD DUP1 SWAP2 SUB SWAP1 REVERT JUMPDEST PUSH1 0x2 PUSH1 0x0 SWAP1 SLOAD SWAP1 PUSH2 0x100 EXP SWAP1 DIV PUSH20 0xFFFFFFFFFFFFFFFFFFFFFFFFFFFFFFFFFFFFFFFF AND PUSH20 0xFFFFFFFFFFFFFFFFFFFFFFFFFFFFFFFFFFFFFFFF AND PUSH4 0x23B872DD CALLER ADDRESS DUP6 PUSH1 0x40 MLOAD DUP5 PUSH4 0xFFFFFFFF AND PUSH1 0xE0 SHL DUP2 MSTORE PUSH1 0x4 ADD PUSH2 0x3C9 SWAP4 SWAP3 SWAP2 SWAP1 PUSH2 0xD7F JUMP JUMPDEST PUSH1 0x20 PUSH1 0x40 MLOAD DUP1 DUP4 SUB DUP2 PUSH1 0x0 DUP8 DUP1 EXTCODESIZE ISZERO DUP1 ISZERO PUSH2 0x3E3 JUMPI PUSH1 0x0 DUP1 REVERT JUMPDEST POP GAS CALL ISZERO DUP1 ISZERO PUSH2 0x3F7 JUMPI RETURNDATASIZE PUSH1 0x0 DUP1 RETURNDATACOPY RETURNDATASIZE PUSH1 0x0 REVERT JUMPDEST POP POP POP POP PUSH1 0x40 MLOAD RETURNDATASIZE PUSH1 0x1F NOT PUSH1 0x1F DUP3 ADD AND DUP3 ADD DUP1 PUSH1 0x40 MSTORE POP DUP2 ADD SWAP1 PUSH2 0x41B SWAP2 SWAP1 PUSH2 0xAA2 JUMP JUMPDEST POP PUSH1 0x1 SWAP1 POP SWAP2 SWAP1 POP JUMP JUMPDEST PUSH1 0x2 PUSH1 0x0 SWAP1 SLOAD SWAP1 PUSH2 0x100 EXP SWAP1 DIV PUSH20 0xFFFFFFFFFFFFFFFFFFFFFFFFFFFFFFFFFFFFFFFF AND DUP2 JUMP JUMPDEST PUSH1 0x0 DUP2 PUSH1 0x0 DUP1 DUP6 PUSH4 0xFFFFFFFF AND PUSH4 0xFFFFFFFF AND DUP2 MSTORE PUSH1 0x20 ADD SWAP1 DUP2 MSTORE PUSH1 0x20 ADD PUSH1 0x0 KECCAK256 PUSH1 0x2 ADD DUP2 SWAP1 SSTORE POP PUSH1 0x1 SWAP1 POP SWAP3 SWAP2 POP POP JUMP JUMPDEST PUSH1 0x0 DUP1 PUSH1 0x1 PUSH8 0xFFFFFFFFFFFFFFFF DUP2 GT ISZERO PUSH2 0x49B JUMPI PUSH2 0x49A PUSH2 0x117F JUMP JUMPDEST JUMPDEST PUSH1 0x40 MLOAD SWAP1 DUP1 DUP3 MSTORE DUP1 PUSH1 0x20 MUL PUSH1 0x20 ADD DUP3 ADD PUSH1 0x40 MSTORE DUP1 ISZERO PUSH2 0x4C9 JUMPI DUP2 PUSH1 0x20 ADD PUSH1 0x20 DUP3 MUL DUP1 CALLDATASIZE DUP4 CALLDATACOPY DUP1 DUP3 ADD SWAP2 POP POP SWAP1 POP JUMPDEST POP SWAP1 POP PUSH1 0x0 PUSH1 0x1 PUSH8 0xFFFFFFFFFFFFFFFF DUP2 GT ISZERO PUSH2 0x4E9 JUMPI PUSH2 0x4E8 PUSH2 0x117F JUMP JUMPDEST JUMPDEST PUSH1 0x40 MLOAD SWAP1 DUP1 DUP3 MSTORE DUP1 PUSH1 0x20 MUL PUSH1 0x20 ADD DUP3 ADD PUSH1 0x40 MSTORE DUP1 ISZERO PUSH2 0x517 JUMPI DUP2 PUSH1 0x20 ADD PUSH1 0x20 DUP3 MUL DUP1 CALLDATASIZE DUP4 CALLDATACOPY DUP1 DUP3 ADD SWAP2 POP POP SWAP1 POP JUMPDEST POP SWAP1 POP PUSH1 0x0 PUSH1 0x1 PUSH8 0xFFFFFFFFFFFFFFFF DUP2 GT ISZERO PUSH2 0x537 JUMPI PUSH2 0x536 PUSH2 0x117F JUMP JUMPDEST JUMPDEST PUSH1 0x40 MLOAD SWAP1 DUP1 DUP3 MSTORE DUP1 PUSH1 0x20 MUL PUSH1 0x20 ADD DUP3 ADD PUSH1 0x40 MSTORE DUP1 ISZERO PUSH2 0x565 JUMPI DUP2 PUSH1 0x20 ADD PUSH1 0x20 DUP3 MUL DUP1 CALLDATASIZE DUP4 CALLDATACOPY DUP1 DUP3 ADD SWAP2 POP POP SWAP1 POP JUMPDEST POP SWAP1 POP ADDRESS DUP4 PUSH1 0x0 DUP2 MLOAD DUP2 LT PUSH2 0x57D JUMPI PUSH2 0x57C PUSH2 0x1150 JUMP JUMPDEST JUMPDEST PUSH1 0x20 MUL PUSH1 0x20 ADD ADD SWAP1 PUSH20 0xFFFFFFFFFFFFFFFFFFFFFFFFFFFFFFFFFFFFFFFF AND SWAP1 DUP2 PUSH20 0xFFFFFFFFFFFFFFFFFFFFFFFFFFFFFFFFFFFFFFFF AND DUP2 MSTORE POP POP DUP5 DUP3 PUSH1 0x0 DUP2 MLOAD DUP2 LT PUSH2 0x5CC JUMPI PUSH2 0x5CB PUSH2 0x1150 JUMP JUMPDEST JUMPDEST PUSH1 0x20 MUL PUSH1 0x20 ADD ADD DUP2 DUP2 MSTORE POP POP PUSH3 0x989680 DUP6 PUSH2 0x5E7 SWAP2 SWAP1 PUSH2 0xFE9 JUMP JUMPDEST DUP2 PUSH1 0x0 DUP2 MLOAD DUP2 LT PUSH2 0x5FB JUMPI PUSH2 0x5FA PUSH2 0x1150 JUMP JUMPDEST JUMPDEST PUSH1 0x20 MUL PUSH1 0x20 ADD ADD DUP2 DUP2 MSTORE POP POP PUSH1 0x1 PUSH1 0x0 SWAP1 SLOAD SWAP1 PUSH2 0x100 EXP SWAP1 DIV PUSH20 0xFFFFFFFFFFFFFFFFFFFFFFFFFFFFFFFFFFFFFFFF AND PUSH20 0xFFFFFFFFFFFFFFFFFFFFFFFFFFFFFFFFFFFFFFFF AND DUP4 DUP4 DUP4 PUSH1 0x40 MLOAD PUSH1 0x24 ADD PUSH2 0x655 SWAP4 SWAP3 SWAP2 SWAP1 PUSH2 0xDDF JUMP JUMPDEST PUSH1 0x40 MLOAD PUSH1 0x20 DUP2 DUP4 SUB SUB DUP2 MSTORE SWAP1 PUSH1 0x40 MSTORE PUSH32 0xF9F585DD00000000000000000000000000000000000000000000000000000000 PUSH28 0xFFFFFFFFFFFFFFFFFFFFFFFFFFFFFFFFFFFFFFFFFFFFFFFFFFFFFFFF NOT AND PUSH1 0x20 DUP3 ADD DUP1 MLOAD PUSH28 0xFFFFFFFFFFFFFFFFFFFFFFFFFFFFFFFFFFFFFFFFFFFFFFFFFFFFFFFF DUP4 DUP2 DUP4 AND OR DUP4 MSTORE POP POP POP POP PUSH1 0x40 MLOAD PUSH2 0x6DF SWAP2 SWAP1 PUSH2 0xD3F JUMP JUMPDEST PUSH1 0x0 PUSH1 0x40 MLOAD DUP1 DUP4 SUB DUP2 DUP6 GAS DELEGATECALL SWAP2 POP POP RETURNDATASIZE DUP1 PUSH1 0x0 DUP2 EQ PUSH2 0x71A JUMPI PUSH1 0x40 MLOAD SWAP2 POP PUSH1 0x1F NOT PUSH1 0x3F RETURNDATASIZE ADD AND DUP3 ADD PUSH1 0x40 MSTORE RETURNDATASIZE DUP3 MSTORE RETURNDATASIZE PUSH1 0x0 PUSH1 0x20 DUP5 ADD RETURNDATACOPY PUSH2 0x71F JUMP JUMPDEST PUSH1 0x60 SWAP2 POP JUMPDEST POP POP POP PUSH1 0x1 SWAP4 POP POP POP POP SWAP2 SWAP1 POP JUMP JUMPDEST PUSH1 0x1 PUSH1 0x0 SWAP1 SLOAD SWAP1 PUSH2 0x100 EXP SWAP1 DIV PUSH20 0xFFFFFFFFFFFFFFFFFFFFFFFFFFFFFFFFFFFFFFFF AND DUP2 JUMP JUMPDEST PUSH1 0x0 PUSH1 0x20 MSTORE DUP1 PUSH1 0x0 MSTORE PUSH1 0x40 PUSH1 0x0 KECCAK256 PUSH1 0x0 SWAP2 POP SWAP1 POP DUP1 PUSH1 0x0 ADD SLOAD SWAP1 DUP1 PUSH1 0x1 ADD SLOAD SWAP1 DUP1 PUSH1 0x2 ADD SLOAD SWAP1 POP DUP4 JUMP JUMPDEST PUSH1 0x0 PUSH1 0x1 PUSH1 0x0 SWAP1 SLOAD SWAP1 PUSH2 0x100 EXP SWAP1 DIV PUSH20 0xFFFFFFFFFFFFFFFFFFFFFFFFFFFFFFFFFFFFFFFF AND PUSH20 0xFFFFFFFFFFFFFFFFFFFFFFFFFFFFFFFFFFFFFFFF AND PUSH4 0xB460481D PUSH1 0x40 MLOAD DUP2 PUSH4 0xFFFFFFFF AND PUSH1 0xE0 SHL DUP2 MSTORE PUSH1 0x4 ADD PUSH1 0x0 PUSH1 0x40 MLOAD DUP1 DUP4 SUB DUP2 PUSH1 0x0 DUP8 DUP1 EXTCODESIZE ISZERO DUP1 ISZERO PUSH2 0x7EA JUMPI PUSH1 0x0 DUP1 REVERT JUMPDEST POP GAS CALL ISZERO DUP1 ISZERO PUSH2 0x7FE JUMPI RETURNDATASIZE PUSH1 0x0 DUP1 RETURNDATACOPY RETURNDATASIZE PUSH1 0x0 REVERT JUMPDEST POP POP POP POP PUSH1 0x40 MLOAD RETURNDATASIZE PUSH1 0x0 DUP3 RETURNDATACOPY RETURNDATASIZE PUSH1 0x1F NOT PUSH1 0x1F DUP3 ADD AND DUP3 ADD DUP1 PUSH1 0x40 MSTORE POP DUP2 ADD SWAP1 PUSH2 0x827 SWAP2 SWAP1 PUSH2 0xA2A JUMP JUMPDEST POP POP PUSH1 0x1 SWAP1 POP SWAP1 JUMP JUMPDEST PUSH1 0x0 PUSH2 0x843 PUSH2 0x83E DUP5 PUSH2 0xEF8 JUMP JUMPDEST PUSH2 0xED3 JUMP JUMPDEST SWAP1 POP DUP1 DUP4 DUP3 MSTORE PUSH1 0x20 DUP3 ADD SWAP1 POP DUP3 DUP6 PUSH1 0x20 DUP7 MUL DUP3 ADD GT ISZERO PUSH2 0x866 JUMPI PUSH2 0x865 PUSH2 0x11B3 JUMP JUMPDEST JUMPDEST PUSH1 0x0 JUMPDEST DUP6 DUP2 LT ISZERO PUSH2 0x896 JUMPI DUP2 PUSH2 0x87C DUP9 DUP3 PUSH2 0x925 JUMP JUMPDEST DUP5 MSTORE PUSH1 0x20 DUP5 ADD SWAP4 POP PUSH1 0x20 DUP4 ADD SWAP3 POP POP PUSH1 0x1 DUP2 ADD SWAP1 POP PUSH2 0x869 JUMP JUMPDEST POP POP POP SWAP4 SWAP3 POP POP POP JUMP JUMPDEST PUSH1 0x0 PUSH2 0x8B3 PUSH2 0x8AE DUP5 PUSH2 0xF24 JUMP JUMPDEST PUSH2 0xED3 JUMP JUMPDEST SWAP1 POP DUP1 DUP4 DUP3 MSTORE PUSH1 0x20 DUP3 ADD SWAP1 POP DUP3 DUP6 PUSH1 0x20 DUP7 MUL DUP3 ADD GT ISZERO PUSH2 0x8D6 JUMPI PUSH2 0x8D5 PUSH2 0x11B3 JUMP JUMPDEST JUMPDEST PUSH1 0x0 JUMPDEST DUP6 DUP2 LT ISZERO PUSH2 0x906 JUMPI DUP2 PUSH2 0x8EC DUP9 DUP3 PUSH2 0x9C0 JUMP JUMPDEST DUP5 MSTORE PUSH1 0x20 DUP5 ADD SWAP4 POP PUSH1 0x20 DUP4 ADD SWAP3 POP POP PUSH1 0x1 DUP2 ADD SWAP1 POP PUSH2 0x8D9 JUMP JUMPDEST POP POP POP SWAP4 SWAP3 POP POP POP JUMP JUMPDEST PUSH1 0x0 DUP2 CALLDATALOAD SWAP1 POP PUSH2 0x91F DUP2 PUSH2 0x11FC JUMP JUMPDEST SWAP3 SWAP2 POP POP JUMP JUMPDEST PUSH1 0x0 DUP2 MLOAD SWAP1 POP PUSH2 0x934 DUP2 PUSH2 0x11FC JUMP JUMPDEST SWAP3 SWAP2 POP POP JUMP JUMPDEST PUSH1 0x0 DUP3 PUSH1 0x1F DUP4 ADD SLT PUSH2 0x94F JUMPI PUSH2 0x94E PUSH2 0x11AE JUMP JUMPDEST JUMPDEST DUP2 MLOAD PUSH2 0x95F DUP5 DUP3 PUSH1 0x20 DUP7 ADD PUSH2 0x830 JUMP JUMPDEST SWAP2 POP POP SWAP3 SWAP2 POP POP JUMP JUMPDEST PUSH1 0x0 DUP3 PUSH1 0x1F DUP4 ADD SLT PUSH2 0x97D JUMPI PUSH2 0x97C PUSH2 0x11AE JUMP JUMPDEST JUMPDEST DUP2 MLOAD PUSH2 0x98D DUP5 DUP3 PUSH1 0x20 DUP7 ADD PUSH2 0x8A0 JUMP JUMPDEST SWAP2 POP POP SWAP3 SWAP2 POP POP JUMP JUMPDEST PUSH1 0x0 DUP2 MLOAD SWAP1 POP PUSH2 0x9A5 DUP2 PUSH2 0x1213 JUMP JUMPDEST SWAP3 SWAP2 POP POP JUMP JUMPDEST PUSH1 0x0 DUP2 CALLDATALOAD SWAP1 POP PUSH2 0x9BA DUP2 PUSH2 0x122A JUMP JUMPDEST SWAP3 SWAP2 POP POP JUMP JUMPDEST PUSH1 0x0 DUP2 MLOAD SWAP1 POP PUSH2 0x9CF DUP2 PUSH2 0x122A JUMP JUMPDEST SWAP3 SWAP2 POP POP JUMP JUMPDEST PUSH1 0x0 DUP2 CALLDATALOAD SWAP1 POP PUSH2 0x9E4 DUP2 PUSH2 0x1241 JUMP JUMPDEST SWAP3 SWAP2 POP POP JUMP JUMPDEST PUSH1 0x0 DUP1 PUSH1 0x40 DUP4 DUP6 SUB SLT ISZERO PUSH2 0xA01 JUMPI PUSH2 0xA00 PUSH2 0x11BD JUMP JUMPDEST JUMPDEST PUSH1 0x0 PUSH2 0xA0F DUP6 DUP3 DUP7 ADD PUSH2 0x910 JUMP JUMPDEST SWAP3 POP POP PUSH1 0x20 PUSH2 0xA20 DUP6 DUP3 DUP7 ADD PUSH2 0x9AB JUMP JUMPDEST SWAP2 POP POP SWAP3 POP SWAP3 SWAP1 POP JUMP JUMPDEST PUSH1 0x0 DUP1 PUSH1 0x40 DUP4 DUP6 SUB SLT ISZERO PUSH2 0xA41 JUMPI PUSH2 0xA40 PUSH2 0x11BD JUMP JUMPDEST JUMPDEST PUSH1 0x0 DUP4 ADD MLOAD PUSH8 0xFFFFFFFFFFFFFFFF DUP2 GT ISZERO PUSH2 0xA5F JUMPI PUSH2 0xA5E PUSH2 0x11B8 JUMP JUMPDEST JUMPDEST PUSH2 0xA6B DUP6 DUP3 DUP7 ADD PUSH2 0x93A JUMP JUMPDEST SWAP3 POP POP PUSH1 0x20 DUP4 ADD MLOAD PUSH8 0xFFFFFFFFFFFFFFFF DUP2 GT ISZERO PUSH2 0xA8C JUMPI PUSH2 0xA8B PUSH2 0x11B8 JUMP JUMPDEST JUMPDEST PUSH2 0xA98 DUP6 DUP3 DUP7 ADD PUSH2 0x968 JUMP JUMPDEST SWAP2 POP POP SWAP3 POP SWAP3 SWAP1 POP JUMP JUMPDEST PUSH1 0x0 PUSH1 0x20 DUP3 DUP5 SUB SLT ISZERO PUSH2 0xAB8 JUMPI PUSH2 0xAB7 PUSH2 0x11BD JUMP JUMPDEST JUMPDEST PUSH1 0x0 PUSH2 0xAC6 DUP5 DUP3 DUP6 ADD PUSH2 0x996 JUMP JUMPDEST SWAP2 POP POP SWAP3 SWAP2 POP POP JUMP JUMPDEST PUSH1 0x0 PUSH1 0x20 DUP3 DUP5 SUB SLT ISZERO PUSH2 0xAE5 JUMPI PUSH2 0xAE4 PUSH2 0x11BD JUMP JUMPDEST JUMPDEST PUSH1 0x0 PUSH2 0xAF3 DUP5 DUP3 DUP6 ADD PUSH2 0x9AB JUMP JUMPDEST SWAP2 POP POP SWAP3 SWAP2 POP POP JUMP JUMPDEST PUSH1 0x0 PUSH1 0x20 DUP3 DUP5 SUB SLT ISZERO PUSH2 0xB12 JUMPI PUSH2 0xB11 PUSH2 0x11BD JUMP JUMPDEST JUMPDEST PUSH1 0x0 PUSH2 0xB20 DUP5 DUP3 DUP6 ADD PUSH2 0x9C0 JUMP JUMPDEST SWAP2 POP POP SWAP3 SWAP2 POP POP JUMP JUMPDEST PUSH1 0x0 PUSH1 0x20 DUP3 DUP5 SUB SLT ISZERO PUSH2 0xB3F JUMPI PUSH2 0xB3E PUSH2 0x11BD JUMP JUMPDEST JUMPDEST PUSH1 0x0 PUSH2 0xB4D DUP5 DUP3 DUP6 ADD PUSH2 0x9D5 JUMP JUMPDEST SWAP2 POP POP SWAP3 SWAP2 POP POP JUMP JUMPDEST PUSH1 0x0 DUP1 PUSH1 0x40 DUP4 DUP6 SUB SLT ISZERO PUSH2 0xB6D JUMPI PUSH2 0xB6C PUSH2 0x11BD JUMP JUMPDEST JUMPDEST PUSH1 0x0 PUSH2 0xB7B DUP6 DUP3 DUP7 ADD PUSH2 0x9D5 JUMP JUMPDEST SWAP3 POP POP PUSH1 0x20 PUSH2 0xB8C DUP6 DUP3 DUP7 ADD PUSH2 0x9AB JUMP JUMPDEST SWAP2 POP POP SWAP3 POP SWAP3 SWAP1 POP JUMP JUMPDEST PUSH1 0x0 PUSH2 0xBA2 DUP4 DUP4 PUSH2 0xBC6 JUMP JUMPDEST PUSH1 0x20 DUP4 ADD SWAP1 POP SWAP3 SWAP2 POP POP JUMP JUMPDEST PUSH1 0x0 PUSH2 0xBBA DUP4 DUP4 PUSH2 0xD21 JUMP JUMPDEST PUSH1 0x20 DUP4 ADD SWAP1 POP SWAP3 SWAP2 POP POP JUMP JUMPDEST PUSH2 0xBCF DUP2 PUSH2 0x101D JUMP JUMPDEST DUP3 MSTORE POP POP JUMP JUMPDEST PUSH2 0xBDE DUP2 PUSH2 0x101D JUMP JUMPDEST DUP3 MSTORE POP POP JUMP JUMPDEST PUSH1 0x0 PUSH2 0xBEF DUP3 PUSH2 0xF70 JUMP JUMPDEST PUSH2 0xBF9 DUP2 DUP6 PUSH2 0xFAB JUMP JUMPDEST SWAP4 POP PUSH2 0xC04 DUP4 PUSH2 0xF50 JUMP JUMPDEST DUP1 PUSH1 0x0 JUMPDEST DUP4 DUP2 LT ISZERO PUSH2 0xC35 JUMPI DUP2 MLOAD PUSH2 0xC1C DUP9 DUP3 PUSH2 0xB96 JUMP JUMPDEST SWAP8 POP PUSH2 0xC27 DUP4 PUSH2 0xF91 JUMP JUMPDEST SWAP3 POP POP PUSH1 0x1 DUP2 ADD SWAP1 POP PUSH2 0xC08 JUMP JUMPDEST POP DUP6 SWAP4 POP POP POP POP SWAP3 SWAP2 POP POP JUMP JUMPDEST PUSH1 0x0 PUSH2 0xC4D DUP3 PUSH2 0xF7B JUMP JUMPDEST PUSH2 0xC57 DUP2 DUP6 PUSH2 0xFBC JUMP JUMPDEST SWAP4 POP PUSH2 0xC62 DUP4 PUSH2 0xF60 JUMP JUMPDEST DUP1 PUSH1 0x0 JUMPDEST DUP4 DUP2 LT ISZERO PUSH2 0xC93 JUMPI DUP2 MLOAD PUSH2 0xC7A DUP9 DUP3 PUSH2 0xBAE JUMP JUMPDEST SWAP8 POP PUSH2 0xC85 DUP4 PUSH2 0xF9E JUMP JUMPDEST SWAP3 POP POP PUSH1 0x1 DUP2 ADD SWAP1 POP PUSH2 0xC66 JUMP JUMPDEST POP DUP6 SWAP4 POP POP POP POP SWAP3 SWAP2 POP POP JUMP JUMPDEST PUSH2 0xCA9 DUP2 PUSH2 0x102F JUMP JUMPDEST DUP3 MSTORE POP POP JUMP JUMPDEST PUSH1 0x0 PUSH2 0xCBA DUP3 PUSH2 0xF86 JUMP JUMPDEST PUSH2 0xCC4 DUP2 DUP6 PUSH2 0xFCD JUMP JUMPDEST SWAP4 POP PUSH2 0xCD4 DUP2 DUP6 PUSH1 0x20 DUP7 ADD PUSH2 0x10BD JUMP JUMPDEST DUP1 DUP5 ADD SWAP2 POP POP SWAP3 SWAP2 POP POP JUMP JUMPDEST PUSH2 0xCE9 DUP2 PUSH2 0x1075 JUMP JUMPDEST DUP3 MSTORE POP POP JUMP JUMPDEST PUSH2 0xCF8 DUP2 PUSH2 0x1099 JUMP JUMPDEST DUP3 MSTORE POP POP JUMP JUMPDEST PUSH1 0x0 PUSH2 0xD0B PUSH1 0x14 DUP4 PUSH2 0xFD8 JUMP JUMPDEST SWAP2 POP PUSH2 0xD16 DUP3 PUSH2 0x11D3 JUMP JUMPDEST PUSH1 0x20 DUP3 ADD SWAP1 POP SWAP2 SWAP1 POP JUMP JUMPDEST PUSH2 0xD2A DUP2 PUSH2 0x105B JUMP JUMPDEST DUP3 MSTORE POP POP JUMP JUMPDEST PUSH2 0xD39 DUP2 PUSH2 0x105B JUMP JUMPDEST DUP3 MSTORE POP POP JUMP JUMPDEST PUSH1 0x0 PUSH2 0xD4B DUP3 DUP5 PUSH2 0xCAF JUMP JUMPDEST SWAP2 POP DUP2 SWAP1 POP SWAP3 SWAP2 POP POP JUMP JUMPDEST PUSH1 0x0 PUSH1 0x40 DUP3 ADD SWAP1 POP PUSH2 0xD6B PUSH1 0x0 DUP4 ADD DUP6 PUSH2 0xBD5 JUMP JUMPDEST PUSH2 0xD78 PUSH1 0x20 DUP4 ADD DUP5 PUSH2 0xBD5 JUMP JUMPDEST SWAP4 SWAP3 POP POP POP JUMP JUMPDEST PUSH1 0x0 PUSH1 0x60 DUP3 ADD SWAP1 POP PUSH2 0xD94 PUSH1 0x0 DUP4 ADD DUP7 PUSH2 0xBD5 JUMP JUMPDEST PUSH2 0xDA1 PUSH1 0x20 DUP4 ADD DUP6 PUSH2 0xBD5 JUMP JUMPDEST PUSH2 0xDAE PUSH1 0x40 DUP4 ADD DUP5 PUSH2 0xD30 JUMP JUMPDEST SWAP5 SWAP4 POP POP POP POP JUMP JUMPDEST PUSH1 0x0 PUSH1 0x40 DUP3 ADD SWAP1 POP PUSH2 0xDCB PUSH1 0x0 DUP4 ADD DUP6 PUSH2 0xBD5 JUMP JUMPDEST PUSH2 0xDD8 PUSH1 0x20 DUP4 ADD DUP5 PUSH2 0xD30 JUMP JUMPDEST SWAP4 SWAP3 POP POP POP JUMP JUMPDEST PUSH1 0x0 PUSH1 0x60 DUP3 ADD SWAP1 POP DUP2 DUP2 SUB PUSH1 0x0 DUP4 ADD MSTORE PUSH2 0xDF9 DUP2 DUP7 PUSH2 0xBE4 JUMP JUMPDEST SWAP1 POP DUP2 DUP2 SUB PUSH1 0x20 DUP4 ADD MSTORE PUSH2 0xE0D DUP2 DUP6 PUSH2 0xC42 JUMP JUMPDEST SWAP1 POP DUP2 DUP2 SUB PUSH1 0x40 DUP4 ADD MSTORE PUSH2 0xE21 DUP2 DUP5 PUSH2 0xC42 JUMP JUMPDEST SWAP1 POP SWAP5 SWAP4 POP POP POP POP JUMP JUMPDEST PUSH1 0x0 PUSH1 0x20 DUP3 ADD SWAP1 POP PUSH2 0xE40 PUSH1 0x0 DUP4 ADD DUP5 PUSH2 0xCA0 JUMP JUMPDEST SWAP3 SWAP2 POP POP JUMP JUMPDEST PUSH1 0x0 PUSH1 0x20 DUP3 ADD SWAP1 POP PUSH2 0xE5B PUSH1 0x0 DUP4 ADD DUP5 PUSH2 0xCE0 JUMP JUMPDEST SWAP3 SWAP2 POP POP JUMP JUMPDEST PUSH1 0x0 PUSH1 0x20 DUP3 ADD SWAP1 POP PUSH2 0xE76 PUSH1 0x0 DUP4 ADD DUP5 PUSH2 0xCEF JUMP JUMPDEST SWAP3 SWAP2 POP POP JUMP JUMPDEST PUSH1 0x0 PUSH1 0x20 DUP3 ADD SWAP1 POP DUP2 DUP2 SUB PUSH1 0x0 DUP4 ADD MSTORE PUSH2 0xE95 DUP2 PUSH2 0xCFE JUMP JUMPDEST SWAP1 POP SWAP2 SWAP1 POP JUMP JUMPDEST PUSH1 0x0 PUSH1 0x60 DUP3 ADD SWAP1 POP PUSH2 0xEB1 PUSH1 0x0 DUP4 ADD DUP7 PUSH2 0xD30 JUMP JUMPDEST PUSH2 0xEBE PUSH1 0x20 DUP4 ADD DUP6 PUSH2 0xD30 JUMP JUMPDEST PUSH2 0xECB PUSH1 0x40 DUP4 ADD DUP5 PUSH2 0xD30 JUMP JUMPDEST SWAP5 SWAP4 POP POP POP POP JUMP JUMPDEST PUSH1 0x0 PUSH2 0xEDD PUSH2 0xEEE JUMP JUMPDEST SWAP1 POP PUSH2 0xEE9 DUP3 DUP3 PUSH2 0x10F0 JUMP JUMPDEST SWAP2 SWAP1 POP JUMP JUMPDEST PUSH1 0x0 PUSH1 0x40 MLOAD SWAP1 POP SWAP1 JUMP JUMPDEST PUSH1 0x0 PUSH8 0xFFFFFFFFFFFFFFFF DUP3 GT ISZERO PUSH2 0xF13 JUMPI PUSH2 0xF12 PUSH2 0x117F JUMP JUMPDEST JUMPDEST PUSH1 0x20 DUP3 MUL SWAP1 POP PUSH1 0x20 DUP2 ADD SWAP1 POP SWAP2 SWAP1 POP JUMP JUMPDEST PUSH1 0x0 PUSH8 0xFFFFFFFFFFFFFFFF DUP3 GT ISZERO PUSH2 0xF3F JUMPI PUSH2 0xF3E PUSH2 0x117F JUMP JUMPDEST JUMPDEST PUSH1 0x20 DUP3 MUL SWAP1 POP PUSH1 0x20 DUP2 ADD SWAP1 POP SWAP2 SWAP1 POP JUMP JUMPDEST PUSH1 0x0 DUP2 SWAP1 POP PUSH1 0x20 DUP3 ADD SWAP1 POP SWAP2 SWAP1 POP JUMP JUMPDEST PUSH1 0x0 DUP2 SWAP1 POP PUSH1 0x20 DUP3 ADD SWAP1 POP SWAP2 SWAP1 POP JUMP JUMPDEST PUSH1 0x0 DUP2 MLOAD SWAP1 POP SWAP2 SWAP1 POP JUMP JUMPDEST PUSH1 0x0 DUP2 MLOAD SWAP1 POP SWAP2 SWAP1 POP JUMP JUMPDEST PUSH1 0x0 DUP2 MLOAD SWAP1 POP SWAP2 SWAP1 POP JUMP JUMPDEST PUSH1 0x0 PUSH1 0x20 DUP3 ADD SWAP1 POP SWAP2 SWAP1 POP JUMP JUMPDEST PUSH1 0x0 PUSH1 0x20 DUP3 ADD SWAP1 POP SWAP2 SWAP1 POP JUMP JUMPDEST PUSH1 0x0 DUP3 DUP3 MSTORE PUSH1 0x20 DUP3 ADD SWAP1 POP SWAP3 SWAP2 POP POP JUMP JUMPDEST PUSH1 0x0 DUP3 DUP3 MSTORE PUSH1 0x20 DUP3 ADD SWAP1 POP SWAP3 SWAP2 POP POP JUMP JUMPDEST PUSH1 0x0 DUP2 SWAP1 POP SWAP3 SWAP2 POP POP JUMP JUMPDEST PUSH1 0x0 DUP3 DUP3 MSTORE PUSH1 0x20 DUP3 ADD SWAP1 POP SWAP3 SWAP2 POP POP JUMP JUMPDEST PUSH1 0x0 PUSH2 0xFF4 DUP3 PUSH2 0x105B JUMP JUMPDEST SWAP2 POP PUSH2 0xFFF DUP4 PUSH2 0x105B JUMP JUMPDEST SWAP3 POP DUP3 DUP3 LT ISZERO PUSH2 0x1012 JUMPI PUSH2 0x1011 PUSH2 0x1121 JUMP JUMPDEST JUMPDEST DUP3 DUP3 SUB SWAP1 POP SWAP3 SWAP2 POP POP JUMP JUMPDEST PUSH1 0x0 PUSH2 0x1028 DUP3 PUSH2 0x103B JUMP JUMPDEST SWAP1 POP SWAP2 SWAP1 POP JUMP JUMPDEST PUSH1 0x0 DUP2 ISZERO ISZERO SWAP1 POP SWAP2 SWAP1 POP JUMP JUMPDEST PUSH1 0x0 PUSH20 0xFFFFFFFFFFFFFFFFFFFFFFFFFFFFFFFFFFFFFFFF DUP3 AND SWAP1 POP SWAP2 SWAP1 POP JUMP JUMPDEST PUSH1 0x0 DUP2 SWAP1 POP SWAP2 SWAP1 POP JUMP JUMPDEST PUSH1 0x0 PUSH4 0xFFFFFFFF DUP3 AND SWAP1 POP SWAP2 SWAP1 POP JUMP JUMPDEST PUSH1 0x0 PUSH2 0x1080 DUP3 PUSH2 0x1087 JUMP JUMPDEST SWAP1 POP SWAP2 SWAP1 POP JUMP JUMPDEST PUSH1 0x0 PUSH2 0x1092 DUP3 PUSH2 0x103B JUMP JUMPDEST SWAP1 POP SWAP2 SWAP1 POP JUMP JUMPDEST PUSH1 0x0 PUSH2 0x10A4 DUP3 PUSH2 0x10AB JUMP JUMPDEST SWAP1 POP SWAP2 SWAP1 POP JUMP JUMPDEST PUSH1 0x0 PUSH2 0x10B6 DUP3 PUSH2 0x103B JUMP JUMPDEST SWAP1 POP SWAP2 SWAP1 POP JUMP JUMPDEST PUSH1 0x0 JUMPDEST DUP4 DUP2 LT ISZERO PUSH2 0x10DB JUMPI DUP1 DUP3 ADD MLOAD DUP2 DUP5 ADD MSTORE PUSH1 0x20 DUP2 ADD SWAP1 POP PUSH2 0x10C0 JUMP JUMPDEST DUP4 DUP2 GT ISZERO PUSH2 0x10EA JUMPI PUSH1 0x0 DUP5 DUP5 ADD MSTORE JUMPDEST POP POP POP POP JUMP JUMPDEST PUSH2 0x10F9 DUP3 PUSH2 0x11C2 JUMP JUMPDEST DUP2 ADD DUP2 DUP2 LT PUSH8 0xFFFFFFFFFFFFFFFF DUP3 GT OR ISZERO PUSH2 0x1118 JUMPI PUSH2 0x1117 PUSH2 0x117F JUMP JUMPDEST JUMPDEST DUP1 PUSH1 0x40 MSTORE POP POP POP JUMP JUMPDEST PUSH32 0x4E487B7100000000000000000000000000000000000000000000000000000000 PUSH1 0x0 MSTORE PUSH1 0x11 PUSH1 0x4 MSTORE PUSH1 0x24 PUSH1 0x0 REVERT JUMPDEST PUSH32 0x4E487B7100000000000000000000000000000000000000000000000000000000 PUSH1 0x0 MSTORE PUSH1 0x32 PUSH1 0x4 MSTORE PUSH1 0x24 PUSH1 0x0 REVERT JUMPDEST PUSH32 0x4E487B7100000000000000000000000000000000000000000000000000000000 PUSH1 0x0 MSTORE PUSH1 0x41 PUSH1 0x4 MSTORE PUSH1 0x24 PUSH1 0x0 REVERT JUMPDEST PUSH1 0x0 DUP1 REVERT JUMPDEST PUSH1 0x0 DUP1 REVERT JUMPDEST PUSH1 0x0 DUP1 REVERT JUMPDEST PUSH1 0x0 DUP1 REVERT JUMPDEST PUSH1 0x0 PUSH1 0x1F NOT PUSH1 0x1F DUP4 ADD AND SWAP1 POP SWAP2 SWAP1 POP JUMP JUMPDEST PUSH32 0x4E6F7420656E6F75676820616C6C6F77616E6365000000000000000000000000 PUSH1 0x0 DUP3 ADD MSTORE POP JUMP JUMPDEST PUSH2 0x1205 DUP2 PUSH2 0x101D JUMP JUMPDEST DUP2 EQ PUSH2 0x1210 JUMPI PUSH1 0x0 DUP1 REVERT JUMPDEST POP JUMP JUMPDEST PUSH2 0x121C DUP2 PUSH2 0x102F JUMP JUMPDEST DUP2 EQ PUSH2 0x1227 JUMPI PUSH1 0x0 DUP1 REVERT JUMPDEST POP JUMP JUMPDEST PUSH2 0x1233 DUP2 PUSH2 0x105B JUMP JUMPDEST DUP2 EQ PUSH2 0x123E JUMPI PUSH1 0x0 DUP1 REVERT JUMPDEST POP JUMP JUMPDEST PUSH2 0x124A DUP2 PUSH2 0x1065 JUMP JUMPDEST DUP2 EQ PUSH2 0x1255 JUMPI PUSH1 0x0 DUP1 REVERT JUMPDEST POP JUMP INVALID LOG2 PUSH5 0x6970667358 0x22 SLT KECCAK256 0xCB ORIGIN ORIGIN 0xC8 0xAA SIGNEXTEND 0x22 LOG0 PUSH11 0x2C47175B1CB6A7CFE58E99 CALLCODE 0xA7 0xCD COINBASE 0xD EXTCODECOPY 0xE6 SUB NUMBER 0xBE EXTCODEHASH JUMPI PUSH5 0x736F6C6343 STOP ADDMOD MOD STOP CALLER "
        },
        "methodIdentifiers": {
          "depositFunds(uint256)": "3b76594d",
          "enzymeVault()": "e6496b06",
          "investFunds(uint256)": "dd4cbcef",
          "projectDetails(uint32)": "f2d72867",
          "redeemAllFunds()": "ff278a2f",
          "setApproval(address,uint256)": "1417cef8",
          "setAttributes(uint32,uint256)": "6681f789",
          "weth()": "3fc8cef3"
        }
      }
    }
  }
}