{
  "contracts/Multicall.sol": {
    "Multicall": {
      "abi": [
        {
          "inputs": [
            {
              "components": [
                {
                  "internalType": "address",
                  "name": "target",
                  "type": "address"
                },
                {
                  "internalType": "bytes",
                  "name": "callData",
                  "type": "bytes"
                }
              ],
              "internalType": "struct Multicall.Call[]",
              "name": "calls",
              "type": "tuple[]"
            }
          ],
          "name": "aggregate",
          "outputs": [
            {
              "internalType": "uint256",
              "name": "blockNumber",
              "type": "uint256"
            },
            {
              "internalType": "bytes[]",
              "name": "returnData",
              "type": "bytes[]"
            }
          ],
          "stateMutability": "nonpayable",
          "type": "function"
        },
        {
          "inputs": [
            {
              "internalType": "uint256",
              "name": "blockNumber",
              "type": "uint256"
            }
          ],
          "name": "getBlockHash",
          "outputs": [
            {
              "internalType": "bytes32",
              "name": "blockHash",
              "type": "bytes32"
            }
          ],
          "stateMutability": "view",
          "type": "function"
        },
        {
          "inputs": [],
          "name": "getCurrentBlockCoinbase",
          "outputs": [
            {
              "internalType": "address",
              "name": "coinbase",
              "type": "address"
            }
          ],
          "stateMutability": "view",
          "type": "function"
        },
        {
          "inputs": [],
          "name": "getCurrentBlockDifficulty",
          "outputs": [
            {
              "internalType": "uint256",
              "name": "difficulty",
              "type": "uint256"
            }
          ],
          "stateMutability": "view",
          "type": "function"
        },
        {
          "inputs": [],
          "name": "getCurrentBlockGasLimit",
          "outputs": [
            {
              "internalType": "uint256",
              "name": "gaslimit",
              "type": "uint256"
            }
          ],
          "stateMutability": "view",
          "type": "function"
        },
        {
          "inputs": [],
          "name": "getCurrentBlockTimestamp",
          "outputs": [
            {
              "internalType": "uint256",
              "name": "timestamp",
              "type": "uint256"
            }
          ],
          "stateMutability": "view",
          "type": "function"
        },
        {
          "inputs": [
            {
              "internalType": "address",
              "name": "addr",
              "type": "address"
            }
          ],
          "name": "getEthBalance",
          "outputs": [
            {
              "internalType": "uint256",
              "name": "balance",
              "type": "uint256"
            }
          ],
          "stateMutability": "view",
          "type": "function"
        },
        {
          "inputs": [],
          "name": "getLastBlockHash",
          "outputs": [
            {
              "internalType": "bytes32",
              "name": "blockHash",
              "type": "bytes32"
            }
          ],
          "stateMutability": "view",
          "type": "function"
        }
      ],
      "evm": {
        "bytecode": {
          "linkReferences": {},
          "object": "608060405234801561001057600080fd5b50610ac2806100206000396000f3fe608060405234801561001057600080fd5b50600436106100885760003560e01c806372425d9d1161005b57806372425d9d1461012a57806386d516e814610148578063a8b0574e14610166578063ee82ac5e1461018457610088565b80630f28c97d1461008d578063252dba42146100ab57806327e86d6e146100dc5780634d2301cc146100fa575b600080fd5b6100956101b4565b6040516100a2919061073a565b60405180910390f35b6100c560048036038101906100c09190610557565b6101bc565b6040516100d3929190610755565b60405180910390f35b6100e461030f565b6040516100f1919061071f565b60405180910390f35b610114600480360381019061010f919061052a565b610324565b604051610121919061073a565b60405180910390f35b610132610345565b60405161013f919061073a565b60405180910390f35b61015061034d565b60405161015d919061073a565b60405180910390f35b61016e610355565b60405161017b9190610704565b60405180910390f35b61019e600480360381019061019991906105a0565b61035d565b6040516101ab919061071f565b60405180910390f35b600042905090565b60006060439150825167ffffffffffffffff8111156101de576101dd6109fb565b5b60405190808252806020026020018201604052801561021157816020015b60608152602001906001900390816101fc5790505b50905060005b835181101561030957600080858381518110610236576102356109cc565b5b60200260200101516000015173ffffffffffffffffffffffffffffffffffffffff1686848151811061026b5761026a6109cc565b5b60200260200101516020015160405161028491906106ed565b6000604051808303816000865af19150503d80600081146102c1576040519150601f19603f3d011682016040523d82523d6000602084013e6102c6565b606091505b5091509150816102d557600080fd5b808484815181106102e9576102e86109cc565b5b60200260200101819052505050808061030190610954565b915050610217565b50915091565b600060014361031e9190610867565b40905090565b60008173ffffffffffffffffffffffffffffffffffffffff16319050919050565b600044905090565b600045905090565b600041905090565b600081409050919050565b600061037b610376846107aa565b610785565b9050808382526020820190508285602086028201111561039e5761039d610a39565b5b60005b858110156103ec57813567ffffffffffffffff8111156103c4576103c3610a2a565b5b8086016103d189826104a9565b855260208501945060208401935050506001810190506103a1565b5050509392505050565b6000610409610404846107d6565b610785565b90508281526020810184848401111561042557610424610a3e565b5b6104308482856108e1565b509392505050565b60008135905061044781610a5e565b92915050565b600082601f83011261046257610461610a2a565b5b8135610472848260208601610368565b91505092915050565b600082601f8301126104905761048f610a2a565b5b81356104a08482602086016103f6565b91505092915050565b6000604082840312156104bf576104be610a2f565b5b6104c96040610785565b905060006104d984828501610438565b600083015250602082013567ffffffffffffffff8111156104fd576104fc610a34565b5b6105098482850161047b565b60208301525092915050565b60008135905061052481610a75565b92915050565b6000602082840312156105405761053f610a48565b5b600061054e84828501610438565b91505092915050565b60006020828403121561056d5761056c610a48565b5b600082013567ffffffffffffffff81111561058b5761058a610a43565b5b6105978482850161044d565b91505092915050565b6000602082840312156105b6576105b5610a48565b5b60006105c484828501610515565b91505092915050565b60006105d98383610674565b905092915050565b6105ea8161089b565b82525050565b60006105fb82610817565b610605818561083a565b93508360208202850161061785610807565b8060005b85811015610653578484038952815161063485826105cd565b945061063f8361082d565b925060208a0199505060018101905061061b565b50829750879550505050505092915050565b61066e816108ad565b82525050565b600061067f82610822565b610689818561084b565b93506106998185602086016108f0565b6106a281610a4d565b840191505092915050565b60006106b882610822565b6106c2818561085c565b93506106d28185602086016108f0565b80840191505092915050565b6106e7816108d7565b82525050565b60006106f982846106ad565b915081905092915050565b600060208201905061071960008301846105e1565b92915050565b60006020820190506107346000830184610665565b92915050565b600060208201905061074f60008301846106de565b92915050565b600060408201905061076a60008301856106de565b818103602083015261077c81846105f0565b90509392505050565b600061078f6107a0565b905061079b8282610923565b919050565b6000604051905090565b600067ffffffffffffffff8211156107c5576107c46109fb565b5b602082029050602081019050919050565b600067ffffffffffffffff8211156107f1576107f06109fb565b5b6107fa82610a4d565b9050602081019050919050565b6000819050602082019050919050565b600081519050919050565b600081519050919050565b6000602082019050919050565b600082825260208201905092915050565b600082825260208201905092915050565b600081905092915050565b6000610872826108d7565b915061087d836108d7565b9250828210156108905761088f61099d565b5b828203905092915050565b60006108a6826108b7565b9050919050565b6000819050919050565b600073ffffffffffffffffffffffffffffffffffffffff82169050919050565b6000819050919050565b82818337600083830152505050565b60005b8381101561090e5780820151818401526020810190506108f3565b8381111561091d576000848401525b50505050565b61092c82610a4d565b810181811067ffffffffffffffff8211171561094b5761094a6109fb565b5b80604052505050565b600061095f826108d7565b91507fffffffffffffffffffffffffffffffffffffffffffffffffffffffffffffffff8214156109925761099161099d565b5b600182019050919050565b7f4e487b7100000000000000000000000000000000000000000000000000000000600052601160045260246000fd5b7f4e487b7100000000000000000000000000000000000000000000000000000000600052603260045260246000fd5b7f4e487b7100000000000000000000000000000000000000000000000000000000600052604160045260246000fd5b600080fd5b600080fd5b600080fd5b600080fd5b600080fd5b600080fd5b600080fd5b6000601f19601f8301169050919050565b610a678161089b565b8114610a7257600080fd5b50565b610a7e816108d7565b8114610a8957600080fd5b5056fea2646970667358221220abf79cbd7feae9761db8c9fedca75fa2174a9aa4ebedc416c46a659c9253ed7464736f6c63430008060033",
          "opcodes": "PUSH1 0x80 PUSH1 0x40 MSTORE CALLVALUE DUP1 ISZERO PUSH2 0x10 JUMPI PUSH1 0x0 DUP1 REVERT JUMPDEST POP PUSH2 0xAC2 DUP1 PUSH2 0x20 PUSH1 0x0 CODECOPY PUSH1 0x0 RETURN INVALID PUSH1 0x80 PUSH1 0x40 MSTORE CALLVALUE DUP1 ISZERO PUSH2 0x10 JUMPI PUSH1 0x0 DUP1 REVERT JUMPDEST POP PUSH1 0x4 CALLDATASIZE LT PUSH2 0x88 JUMPI PUSH1 0x0 CALLDATALOAD PUSH1 0xE0 SHR DUP1 PUSH4 0x72425D9D GT PUSH2 0x5B JUMPI DUP1 PUSH4 0x72425D9D EQ PUSH2 0x12A JUMPI DUP1 PUSH4 0x86D516E8 EQ PUSH2 0x148 JUMPI DUP1 PUSH4 0xA8B0574E EQ PUSH2 0x166 JUMPI DUP1 PUSH4 0xEE82AC5E EQ PUSH2 0x184 JUMPI PUSH2 0x88 JUMP JUMPDEST DUP1 PUSH4 0xF28C97D EQ PUSH2 0x8D JUMPI DUP1 PUSH4 0x252DBA42 EQ PUSH2 0xAB JUMPI DUP1 PUSH4 0x27E86D6E EQ PUSH2 0xDC JUMPI DUP1 PUSH4 0x4D2301CC EQ PUSH2 0xFA JUMPI JUMPDEST PUSH1 0x0 DUP1 REVERT JUMPDEST PUSH2 0x95 PUSH2 0x1B4 JUMP JUMPDEST PUSH1 0x40 MLOAD PUSH2 0xA2 SWAP2 SWAP1 PUSH2 0x73A JUMP JUMPDEST PUSH1 0x40 MLOAD DUP1 SWAP2 SUB SWAP1 RETURN JUMPDEST PUSH2 0xC5 PUSH1 0x4 DUP1 CALLDATASIZE SUB DUP2 ADD SWAP1 PUSH2 0xC0 SWAP2 SWAP1 PUSH2 0x557 JUMP JUMPDEST PUSH2 0x1BC JUMP JUMPDEST PUSH1 0x40 MLOAD PUSH2 0xD3 SWAP3 SWAP2 SWAP1 PUSH2 0x755 JUMP JUMPDEST PUSH1 0x40 MLOAD DUP1 SWAP2 SUB SWAP1 RETURN JUMPDEST PUSH2 0xE4 PUSH2 0x30F JUMP JUMPDEST PUSH1 0x40 MLOAD PUSH2 0xF1 SWAP2 SWAP1 PUSH2 0x71F JUMP JUMPDEST PUSH1 0x40 MLOAD DUP1 SWAP2 SUB SWAP1 RETURN JUMPDEST PUSH2 0x114 PUSH1 0x4 DUP1 CALLDATASIZE SUB DUP2 ADD SWAP1 PUSH2 0x10F SWAP2 SWAP1 PUSH2 0x52A JUMP JUMPDEST PUSH2 0x324 JUMP JUMPDEST PUSH1 0x40 MLOAD PUSH2 0x121 SWAP2 SWAP1 PUSH2 0x73A JUMP JUMPDEST PUSH1 0x40 MLOAD DUP1 SWAP2 SUB SWAP1 RETURN JUMPDEST PUSH2 0x132 PUSH2 0x345 JUMP JUMPDEST PUSH1 0x40 MLOAD PUSH2 0x13F SWAP2 SWAP1 PUSH2 0x73A JUMP JUMPDEST PUSH1 0x40 MLOAD DUP1 SWAP2 SUB SWAP1 RETURN JUMPDEST PUSH2 0x150 PUSH2 0x34D JUMP JUMPDEST PUSH1 0x40 MLOAD PUSH2 0x15D SWAP2 SWAP1 PUSH2 0x73A JUMP JUMPDEST PUSH1 0x40 MLOAD DUP1 SWAP2 SUB SWAP1 RETURN JUMPDEST PUSH2 0x16E PUSH2 0x355 JUMP JUMPDEST PUSH1 0x40 MLOAD PUSH2 0x17B SWAP2 SWAP1 PUSH2 0x704 JUMP JUMPDEST PUSH1 0x40 MLOAD DUP1 SWAP2 SUB SWAP1 RETURN JUMPDEST PUSH2 0x19E PUSH1 0x4 DUP1 CALLDATASIZE SUB DUP2 ADD SWAP1 PUSH2 0x199 SWAP2 SWAP1 PUSH2 0x5A0 JUMP JUMPDEST PUSH2 0x35D JUMP JUMPDEST PUSH1 0x40 MLOAD PUSH2 0x1AB SWAP2 SWAP1 PUSH2 0x71F JUMP JUMPDEST PUSH1 0x40 MLOAD DUP1 SWAP2 SUB SWAP1 RETURN JUMPDEST PUSH1 0x0 TIMESTAMP SWAP1 POP SWAP1 JUMP JUMPDEST PUSH1 0x0 PUSH1 0x60 NUMBER SWAP2 POP DUP3 MLOAD PUSH8 0xFFFFFFFFFFFFFFFF DUP2 GT ISZERO PUSH2 0x1DE JUMPI PUSH2 0x1DD PUSH2 0x9FB JUMP JUMPDEST JUMPDEST PUSH1 0x40 MLOAD SWAP1 DUP1 DUP3 MSTORE DUP1 PUSH1 0x20 MUL PUSH1 0x20 ADD DUP3 ADD PUSH1 0x40 MSTORE DUP1 ISZERO PUSH2 0x211 JUMPI DUP2 PUSH1 0x20 ADD JUMPDEST PUSH1 0x60 DUP2 MSTORE PUSH1 0x20 ADD SWAP1 PUSH1 0x1 SWAP1 SUB SWAP1 DUP2 PUSH2 0x1FC JUMPI SWAP1 POP JUMPDEST POP SWAP1 POP PUSH1 0x0 JUMPDEST DUP4 MLOAD DUP2 LT ISZERO PUSH2 0x309 JUMPI PUSH1 0x0 DUP1 DUP6 DUP4 DUP2 MLOAD DUP2 LT PUSH2 0x236 JUMPI PUSH2 0x235 PUSH2 0x9CC JUMP JUMPDEST JUMPDEST PUSH1 0x20 MUL PUSH1 0x20 ADD ADD MLOAD PUSH1 0x0 ADD MLOAD PUSH20 0xFFFFFFFFFFFFFFFFFFFFFFFFFFFFFFFFFFFFFFFF AND DUP7 DUP5 DUP2 MLOAD DUP2 LT PUSH2 0x26B JUMPI PUSH2 0x26A PUSH2 0x9CC JUMP JUMPDEST JUMPDEST PUSH1 0x20 MUL PUSH1 0x20 ADD ADD MLOAD PUSH1 0x20 ADD MLOAD PUSH1 0x40 MLOAD PUSH2 0x284 SWAP2 SWAP1 PUSH2 0x6ED JUMP JUMPDEST PUSH1 0x0 PUSH1 0x40 MLOAD DUP1 DUP4 SUB DUP2 PUSH1 0x0 DUP7 GAS CALL SWAP2 POP POP RETURNDATASIZE DUP1 PUSH1 0x0 DUP2 EQ PUSH2 0x2C1 JUMPI PUSH1 0x40 MLOAD SWAP2 POP PUSH1 0x1F NOT PUSH1 0x3F RETURNDATASIZE ADD AND DUP3 ADD PUSH1 0x40 MSTORE RETURNDATASIZE DUP3 MSTORE RETURNDATASIZE PUSH1 0x0 PUSH1 0x20 DUP5 ADD RETURNDATACOPY PUSH2 0x2C6 JUMP JUMPDEST PUSH1 0x60 SWAP2 POP JUMPDEST POP SWAP2 POP SWAP2 POP DUP2 PUSH2 0x2D5 JUMPI PUSH1 0x0 DUP1 REVERT JUMPDEST DUP1 DUP5 DUP5 DUP2 MLOAD DUP2 LT PUSH2 0x2E9 JUMPI PUSH2 0x2E8 PUSH2 0x9CC JUMP JUMPDEST JUMPDEST PUSH1 0x20 MUL PUSH1 0x20 ADD ADD DUP2 SWAP1 MSTORE POP POP POP DUP1 DUP1 PUSH2 0x301 SWAP1 PUSH2 0x954 JUMP JUMPDEST SWAP2 POP POP PUSH2 0x217 JUMP JUMPDEST POP SWAP2 POP SWAP2 JUMP JUMPDEST PUSH1 0x0 PUSH1 0x1 NUMBER PUSH2 0x31E SWAP2 SWAP1 PUSH2 0x867 JUMP JUMPDEST BLOCKHASH SWAP1 POP SWAP1 JUMP JUMPDEST PUSH1 0x0 DUP2 PUSH20 0xFFFFFFFFFFFFFFFFFFFFFFFFFFFFFFFFFFFFFFFF AND BALANCE SWAP1 POP SWAP2 SWAP1 POP JUMP JUMPDEST PUSH1 0x0 DIFFICULTY SWAP1 POP SWAP1 JUMP JUMPDEST PUSH1 0x0 GASLIMIT SWAP1 POP SWAP1 JUMP JUMPDEST PUSH1 0x0 COINBASE SWAP1 POP SWAP1 JUMP JUMPDEST PUSH1 0x0 DUP2 BLOCKHASH SWAP1 POP SWAP2 SWAP1 POP JUMP JUMPDEST PUSH1 0x0 PUSH2 0x37B PUSH2 0x376 DUP5 PUSH2 0x7AA JUMP JUMPDEST PUSH2 0x785 JUMP JUMPDEST SWAP1 POP DUP1 DUP4 DUP3 MSTORE PUSH1 0x20 DUP3 ADD SWAP1 POP DUP3 DUP6 PUSH1 0x20 DUP7 MUL DUP3 ADD GT ISZERO PUSH2 0x39E JUMPI PUSH2 0x39D PUSH2 0xA39 JUMP JUMPDEST JUMPDEST PUSH1 0x0 JUMPDEST DUP6 DUP2 LT ISZERO PUSH2 0x3EC JUMPI DUP2 CALLDATALOAD PUSH8 0xFFFFFFFFFFFFFFFF DUP2 GT ISZERO PUSH2 0x3C4 JUMPI PUSH2 0x3C3 PUSH2 0xA2A JUMP JUMPDEST JUMPDEST DUP1 DUP7 ADD PUSH2 0x3D1 DUP10 DUP3 PUSH2 0x4A9 JUMP JUMPDEST DUP6 MSTORE PUSH1 0x20 DUP6 ADD SWAP5 POP PUSH1 0x20 DUP5 ADD SWAP4 POP POP POP PUSH1 0x1 DUP2 ADD SWAP1 POP PUSH2 0x3A1 JUMP JUMPDEST POP POP POP SWAP4 SWAP3 POP POP POP JUMP JUMPDEST PUSH1 0x0 PUSH2 0x409 PUSH2 0x404 DUP5 PUSH2 0x7D6 JUMP JUMPDEST PUSH2 0x785 JUMP JUMPDEST SWAP1 POP DUP3 DUP2 MSTORE PUSH1 0x20 DUP2 ADD DUP5 DUP5 DUP5 ADD GT ISZERO PUSH2 0x425 JUMPI PUSH2 0x424 PUSH2 0xA3E JUMP JUMPDEST JUMPDEST PUSH2 0x430 DUP5 DUP3 DUP6 PUSH2 0x8E1 JUMP JUMPDEST POP SWAP4 SWAP3 POP POP POP JUMP JUMPDEST PUSH1 0x0 DUP2 CALLDATALOAD SWAP1 POP PUSH2 0x447 DUP2 PUSH2 0xA5E JUMP JUMPDEST SWAP3 SWAP2 POP POP JUMP JUMPDEST PUSH1 0x0 DUP3 PUSH1 0x1F DUP4 ADD SLT PUSH2 0x462 JUMPI PUSH2 0x461 PUSH2 0xA2A JUMP JUMPDEST JUMPDEST DUP2 CALLDATALOAD PUSH2 0x472 DUP5 DUP3 PUSH1 0x20 DUP7 ADD PUSH2 0x368 JUMP JUMPDEST SWAP2 POP POP SWAP3 SWAP2 POP POP JUMP JUMPDEST PUSH1 0x0 DUP3 PUSH1 0x1F DUP4 ADD SLT PUSH2 0x490 JUMPI PUSH2 0x48F PUSH2 0xA2A JUMP JUMPDEST JUMPDEST DUP2 CALLDATALOAD PUSH2 0x4A0 DUP5 DUP3 PUSH1 0x20 DUP7 ADD PUSH2 0x3F6 JUMP JUMPDEST SWAP2 POP POP SWAP3 SWAP2 POP POP JUMP JUMPDEST PUSH1 0x0 PUSH1 0x40 DUP3 DUP5 SUB SLT ISZERO PUSH2 0x4BF JUMPI PUSH2 0x4BE PUSH2 0xA2F JUMP JUMPDEST JUMPDEST PUSH2 0x4C9 PUSH1 0x40 PUSH2 0x785 JUMP JUMPDEST SWAP1 POP PUSH1 0x0 PUSH2 0x4D9 DUP5 DUP3 DUP6 ADD PUSH2 0x438 JUMP JUMPDEST PUSH1 0x0 DUP4 ADD MSTORE POP PUSH1 0x20 DUP3 ADD CALLDATALOAD PUSH8 0xFFFFFFFFFFFFFFFF DUP2 GT ISZERO PUSH2 0x4FD JUMPI PUSH2 0x4FC PUSH2 0xA34 JUMP JUMPDEST JUMPDEST PUSH2 0x509 DUP5 DUP3 DUP6 ADD PUSH2 0x47B JUMP JUMPDEST PUSH1 0x20 DUP4 ADD MSTORE POP SWAP3 SWAP2 POP POP JUMP JUMPDEST PUSH1 0x0 DUP2 CALLDATALOAD SWAP1 POP PUSH2 0x524 DUP2 PUSH2 0xA75 JUMP JUMPDEST SWAP3 SWAP2 POP POP JUMP JUMPDEST PUSH1 0x0 PUSH1 0x20 DUP3 DUP5 SUB SLT ISZERO PUSH2 0x540 JUMPI PUSH2 0x53F PUSH2 0xA48 JUMP JUMPDEST JUMPDEST PUSH1 0x0 PUSH2 0x54E DUP5 DUP3 DUP6 ADD PUSH2 0x438 JUMP JUMPDEST SWAP2 POP POP SWAP3 SWAP2 POP POP JUMP JUMPDEST PUSH1 0x0 PUSH1 0x20 DUP3 DUP5 SUB SLT ISZERO PUSH2 0x56D JUMPI PUSH2 0x56C PUSH2 0xA48 JUMP JUMPDEST JUMPDEST PUSH1 0x0 DUP3 ADD CALLDATALOAD PUSH8 0xFFFFFFFFFFFFFFFF DUP2 GT ISZERO PUSH2 0x58B JUMPI PUSH2 0x58A PUSH2 0xA43 JUMP JUMPDEST JUMPDEST PUSH2 0x597 DUP5 DUP3 DUP6 ADD PUSH2 0x44D JUMP JUMPDEST SWAP2 POP POP SWAP3 SWAP2 POP POP JUMP JUMPDEST PUSH1 0x0 PUSH1 0x20 DUP3 DUP5 SUB SLT ISZERO PUSH2 0x5B6 JUMPI PUSH2 0x5B5 PUSH2 0xA48 JUMP JUMPDEST JUMPDEST PUSH1 0x0 PUSH2 0x5C4 DUP5 DUP3 DUP6 ADD PUSH2 0x515 JUMP JUMPDEST SWAP2 POP POP SWAP3 SWAP2 POP POP JUMP JUMPDEST PUSH1 0x0 PUSH2 0x5D9 DUP4 DUP4 PUSH2 0x674 JUMP JUMPDEST SWAP1 POP SWAP3 SWAP2 POP POP JUMP JUMPDEST PUSH2 0x5EA DUP2 PUSH2 0x89B JUMP JUMPDEST DUP3 MSTORE POP POP JUMP JUMPDEST PUSH1 0x0 PUSH2 0x5FB DUP3 PUSH2 0x817 JUMP JUMPDEST PUSH2 0x605 DUP2 DUP6 PUSH2 0x83A JUMP JUMPDEST SWAP4 POP DUP4 PUSH1 0x20 DUP3 MUL DUP6 ADD PUSH2 0x617 DUP6 PUSH2 0x807 JUMP JUMPDEST DUP1 PUSH1 0x0 JUMPDEST DUP6 DUP2 LT ISZERO PUSH2 0x653 JUMPI DUP5 DUP5 SUB DUP10 MSTORE DUP2 MLOAD PUSH2 0x634 DUP6 DUP3 PUSH2 0x5CD JUMP JUMPDEST SWAP5 POP PUSH2 0x63F DUP4 PUSH2 0x82D JUMP JUMPDEST SWAP3 POP PUSH1 0x20 DUP11 ADD SWAP10 POP POP PUSH1 0x1 DUP2 ADD SWAP1 POP PUSH2 0x61B JUMP JUMPDEST POP DUP3 SWAP8 POP DUP8 SWAP6 POP POP POP POP POP POP SWAP3 SWAP2 POP POP JUMP JUMPDEST PUSH2 0x66E DUP2 PUSH2 0x8AD JUMP JUMPDEST DUP3 MSTORE POP POP JUMP JUMPDEST PUSH1 0x0 PUSH2 0x67F DUP3 PUSH2 0x822 JUMP JUMPDEST PUSH2 0x689 DUP2 DUP6 PUSH2 0x84B JUMP JUMPDEST SWAP4 POP PUSH2 0x699 DUP2 DUP6 PUSH1 0x20 DUP7 ADD PUSH2 0x8F0 JUMP JUMPDEST PUSH2 0x6A2 DUP2 PUSH2 0xA4D JUMP JUMPDEST DUP5 ADD SWAP2 POP POP SWAP3 SWAP2 POP POP JUMP JUMPDEST PUSH1 0x0 PUSH2 0x6B8 DUP3 PUSH2 0x822 JUMP JUMPDEST PUSH2 0x6C2 DUP2 DUP6 PUSH2 0x85C JUMP JUMPDEST SWAP4 POP PUSH2 0x6D2 DUP2 DUP6 PUSH1 0x20 DUP7 ADD PUSH2 0x8F0 JUMP JUMPDEST DUP1 DUP5 ADD SWAP2 POP POP SWAP3 SWAP2 POP POP JUMP JUMPDEST PUSH2 0x6E7 DUP2 PUSH2 0x8D7 JUMP JUMPDEST DUP3 MSTORE POP POP JUMP JUMPDEST PUSH1 0x0 PUSH2 0x6F9 DUP3 DUP5 PUSH2 0x6AD JUMP JUMPDEST SWAP2 POP DUP2 SWAP1 POP SWAP3 SWAP2 POP POP JUMP JUMPDEST PUSH1 0x0 PUSH1 0x20 DUP3 ADD SWAP1 POP PUSH2 0x719 PUSH1 0x0 DUP4 ADD DUP5 PUSH2 0x5E1 JUMP JUMPDEST SWAP3 SWAP2 POP POP JUMP JUMPDEST PUSH1 0x0 PUSH1 0x20 DUP3 ADD SWAP1 POP PUSH2 0x734 PUSH1 0x0 DUP4 ADD DUP5 PUSH2 0x665 JUMP JUMPDEST SWAP3 SWAP2 POP POP JUMP JUMPDEST PUSH1 0x0 PUSH1 0x20 DUP3 ADD SWAP1 POP PUSH2 0x74F PUSH1 0x0 DUP4 ADD DUP5 PUSH2 0x6DE JUMP JUMPDEST SWAP3 SWAP2 POP POP JUMP JUMPDEST PUSH1 0x0 PUSH1 0x40 DUP3 ADD SWAP1 POP PUSH2 0x76A PUSH1 0x0 DUP4 ADD DUP6 PUSH2 0x6DE JUMP JUMPDEST DUP2 DUP2 SUB PUSH1 0x20 DUP4 ADD MSTORE PUSH2 0x77C DUP2 DUP5 PUSH2 0x5F0 JUMP JUMPDEST SWAP1 POP SWAP4 SWAP3 POP POP POP JUMP JUMPDEST PUSH1 0x0 PUSH2 0x78F PUSH2 0x7A0 JUMP JUMPDEST SWAP1 POP PUSH2 0x79B DUP3 DUP3 PUSH2 0x923 JUMP JUMPDEST SWAP2 SWAP1 POP JUMP JUMPDEST PUSH1 0x0 PUSH1 0x40 MLOAD SWAP1 POP SWAP1 JUMP JUMPDEST PUSH1 0x0 PUSH8 0xFFFFFFFFFFFFFFFF DUP3 GT ISZERO PUSH2 0x7C5 JUMPI PUSH2 0x7C4 PUSH2 0x9FB JUMP JUMPDEST JUMPDEST PUSH1 0x20 DUP3 MUL SWAP1 POP PUSH1 0x20 DUP2 ADD SWAP1 POP SWAP2 SWAP1 POP JUMP JUMPDEST PUSH1 0x0 PUSH8 0xFFFFFFFFFFFFFFFF DUP3 GT ISZERO PUSH2 0x7F1 JUMPI PUSH2 0x7F0 PUSH2 0x9FB JUMP JUMPDEST JUMPDEST PUSH2 0x7FA DUP3 PUSH2 0xA4D JUMP JUMPDEST SWAP1 POP PUSH1 0x20 DUP2 ADD SWAP1 POP SWAP2 SWAP1 POP JUMP JUMPDEST PUSH1 0x0 DUP2 SWAP1 POP PUSH1 0x20 DUP3 ADD SWAP1 POP SWAP2 SWAP1 POP JUMP JUMPDEST PUSH1 0x0 DUP2 MLOAD SWAP1 POP SWAP2 SWAP1 POP JUMP JUMPDEST PUSH1 0x0 DUP2 MLOAD SWAP1 POP SWAP2 SWAP1 POP JUMP JUMPDEST PUSH1 0x0 PUSH1 0x20 DUP3 ADD SWAP1 POP SWAP2 SWAP1 POP JUMP JUMPDEST PUSH1 0x0 DUP3 DUP3 MSTORE PUSH1 0x20 DUP3 ADD SWAP1 POP SWAP3 SWAP2 POP POP JUMP JUMPDEST PUSH1 0x0 DUP3 DUP3 MSTORE PUSH1 0x20 DUP3 ADD SWAP1 POP SWAP3 SWAP2 POP POP JUMP JUMPDEST PUSH1 0x0 DUP2 SWAP1 POP SWAP3 SWAP2 POP POP JUMP JUMPDEST PUSH1 0x0 PUSH2 0x872 DUP3 PUSH2 0x8D7 JUMP JUMPDEST SWAP2 POP PUSH2 0x87D DUP4 PUSH2 0x8D7 JUMP JUMPDEST SWAP3 POP DUP3 DUP3 LT ISZERO PUSH2 0x890 JUMPI PUSH2 0x88F PUSH2 0x99D JUMP JUMPDEST JUMPDEST DUP3 DUP3 SUB SWAP1 POP SWAP3 SWAP2 POP POP JUMP JUMPDEST PUSH1 0x0 PUSH2 0x8A6 DUP3 PUSH2 0x8B7 JUMP JUMPDEST SWAP1 POP SWAP2 SWAP1 POP JUMP JUMPDEST PUSH1 0x0 DUP2 SWAP1 POP SWAP2 SWAP1 POP JUMP JUMPDEST PUSH1 0x0 PUSH20 0xFFFFFFFFFFFFFFFFFFFFFFFFFFFFFFFFFFFFFFFF DUP3 AND SWAP1 POP SWAP2 SWAP1 POP JUMP JUMPDEST PUSH1 0x0 DUP2 SWAP1 POP SWAP2 SWAP1 POP JUMP JUMPDEST DUP3 DUP2 DUP4 CALLDATACOPY PUSH1 0x0 DUP4 DUP4 ADD MSTORE POP POP POP JUMP JUMPDEST PUSH1 0x0 JUMPDEST DUP4 DUP2 LT ISZERO PUSH2 0x90E JUMPI DUP1 DUP3 ADD MLOAD DUP2 DUP5 ADD MSTORE PUSH1 0x20 DUP2 ADD SWAP1 POP PUSH2 0x8F3 JUMP JUMPDEST DUP4 DUP2 GT ISZERO PUSH2 0x91D JUMPI PUSH1 0x0 DUP5 DUP5 ADD MSTORE JUMPDEST POP POP POP POP JUMP JUMPDEST PUSH2 0x92C DUP3 PUSH2 0xA4D JUMP JUMPDEST DUP2 ADD DUP2 DUP2 LT PUSH8 0xFFFFFFFFFFFFFFFF DUP3 GT OR ISZERO PUSH2 0x94B JUMPI PUSH2 0x94A PUSH2 0x9FB JUMP JUMPDEST JUMPDEST DUP1 PUSH1 0x40 MSTORE POP POP POP JUMP JUMPDEST PUSH1 0x0 PUSH2 0x95F DUP3 PUSH2 0x8D7 JUMP JUMPDEST SWAP2 POP PUSH32 0xFFFFFFFFFFFFFFFFFFFFFFFFFFFFFFFFFFFFFFFFFFFFFFFFFFFFFFFFFFFFFFFF DUP3 EQ ISZERO PUSH2 0x992 JUMPI PUSH2 0x991 PUSH2 0x99D JUMP JUMPDEST JUMPDEST PUSH1 0x1 DUP3 ADD SWAP1 POP SWAP2 SWAP1 POP JUMP JUMPDEST PUSH32 0x4E487B7100000000000000000000000000000000000000000000000000000000 PUSH1 0x0 MSTORE PUSH1 0x11 PUSH1 0x4 MSTORE PUSH1 0x24 PUSH1 0x0 REVERT JUMPDEST PUSH32 0x4E487B7100000000000000000000000000000000000000000000000000000000 PUSH1 0x0 MSTORE PUSH1 0x32 PUSH1 0x4 MSTORE PUSH1 0x24 PUSH1 0x0 REVERT JUMPDEST PUSH32 0x4E487B7100000000000000000000000000000000000000000000000000000000 PUSH1 0x0 MSTORE PUSH1 0x41 PUSH1 0x4 MSTORE PUSH1 0x24 PUSH1 0x0 REVERT JUMPDEST PUSH1 0x0 DUP1 REVERT JUMPDEST PUSH1 0x0 DUP1 REVERT JUMPDEST PUSH1 0x0 DUP1 REVERT JUMPDEST PUSH1 0x0 DUP1 REVERT JUMPDEST PUSH1 0x0 DUP1 REVERT JUMPDEST PUSH1 0x0 DUP1 REVERT JUMPDEST PUSH1 0x0 DUP1 REVERT JUMPDEST PUSH1 0x0 PUSH1 0x1F NOT PUSH1 0x1F DUP4 ADD AND SWAP1 POP SWAP2 SWAP1 POP JUMP JUMPDEST PUSH2 0xA67 DUP2 PUSH2 0x89B JUMP JUMPDEST DUP2 EQ PUSH2 0xA72 JUMPI PUSH1 0x0 DUP1 REVERT JUMPDEST POP JUMP JUMPDEST PUSH2 0xA7E DUP2 PUSH2 0x8D7 JUMP JUMPDEST DUP2 EQ PUSH2 0xA89 JUMPI PUSH1 0x0 DUP1 REVERT JUMPDEST POP JUMP INVALID LOG2 PUSH5 0x6970667358 0x22 SLT KECCAK256 0xAB 0xF7 SWAP13 0xBD PUSH32 0xEAE9761DB8C9FEDCA75FA2174A9AA4EBEDC416C46A659C9253ED7464736F6C63 NUMBER STOP ADDMOD MOD STOP CALLER "
        },
        "methodIdentifiers": {
          "aggregate((address,bytes)[])": "252dba42",
          "getBlockHash(uint256)": "ee82ac5e",
          "getCurrentBlockCoinbase()": "a8b0574e",
          "getCurrentBlockDifficulty()": "72425d9d",
          "getCurrentBlockGasLimit()": "86d516e8",
          "getCurrentBlockTimestamp()": "0f28c97d",
          "getEthBalance(address)": "4d2301cc",
          "getLastBlockHash()": "27e86d6e"
        }
      }
    }
  }
}